:100000000C9490010C94B9050C9492050C94B801D1
:100010000C94B8010C94B8010C94E40D0C94B80144
:100020000C94B8010C94B8010C94B8010C94B8016C
:100030000C94B8010C94B8010C94B8010C94B8015C
:100040000C94830F0C94B8010C94C70C0C94A10C65
:100050000C94B8010C94B8010C94B8010C94B8013C
:100060000C9464040C94B801010402000302048A95
:10007000050506C30B2019421E2C25802E902FAAA1
:10008000302D370038003C8F3D106F2000005EBCE3
:10009000E2613FDD83C29C7E20A3FD1F419DC32101
:1000A0007FFCA2401E5F01E3BD3E6082DC237D9F9A
:1000B000C1421CFEA0E1BF5D0380DE3C62BEE002E7
:1000C0005CDF81633D7C22C09E1D43A1FF4618FA80
:1000D000A427799BC584DA3866E5BB5907DB8567B9
:1000E00039BAE406581947A5FB7826C49A653BD966
:1000F00087045AB8E6A7F91B45C6987A24F8A6449F
:100100001A99C7257B3A6486D85B05E7B98CD2304B
:100110006EEDB3510F4E10F2AC2F7193CD114FAD68
:10012000F3702ECC92D38D6F31B2EC0E50AFF11331
:100130004DCE90722C6D33D18F0C52B0EE326C8E4E
:10014000D0530DEFB1F0AE4C1291CF2D73CA94760F
:1001500028ABF517490856B4EA6937D58B5709EB30
:10016000B536688AD495CB2977F4AA4816E9B755ED
:100170000B88D6346A2B7597C94A14F6A8742AC816
:1001800096154BA9F7B6E80A54D7896B350A41761C
:1001900061696C61626C6520636F6D6D616E647323
:1001A0003A0A20203C6E6E3E206920202020202D1F
:1001B00020736574206E6F64652049447320287332
:1001C00074616E64617264206E6F6465206964732B
:1001D0002061726520312E2E3330290A20203C6E9A
:1001E0003E20622020202020202D20736574204D89
:1001F000487A2062616E64202834203D20343333F5
:100200002C2038203D203836382C2039203D20390C
:100210003135290A20203C6E6E6E3E20672020205A
:10022000202D20736574206E6574776F726B206764
:10023000726F7570202852464D3132206F6E6C7986
:1002400020616C6C6F7773203231322C2030203D6E
:1002500020616E79290A2020732020202020202070
:100260002020202D207361766520636F6E6669679C
:1002700020746F20454550524F4D0A202076202093
:1002800020202020202020202D2053686F772066FA
:1002900069726D776172652076657273696F6E0A37
:1002A00000000000002300260029000404040404C8
:1002B0000404040202020202020303030303030113
:1002C00002040810204080010204081020010204EA
:1002D0000810202000204D487A0020402000206790
:1002E0000020690020005D005B656D6F6E54482042
:1002F00046573A20560000000000240027002A003C
:1003000000000000250028002B000000000800026B
:100310000100000304070000000000000000A61612
:1003200011241FBECFEFD8E0DEBFCDBF12E0A0E0AA
:10033000B1E0E0E9F8E302C005900D92A83BB107F7
:10034000D9F725E0A8EBB2E001C01D92A932B207AF
:10035000E1F711E0C0E9D1E004C02197FE010E945D
:100360008117CF38D107C9F70E94CD0F0C94461CD6
:100370000C94000085ED8093BC008091BC0084FD4E
:10038000FCCF1092E203089540911D03262F30E028
:10039000240F311D21323105DCF42091E203243099
:1003A000C9F4FC0180E090E0861758F430911D03F9
:1003B0002191DC01A550BD4FA30FB11D2C930196D7
:1003C000F3CF80911D03680F60931D0380E00895B3
:1003D00081E0089582E008950895E0919B03809163
:1003E0009A03E81730F4F0E0E456FC4F808190E087
:1003F00008958FEF9FEF089590919B0380919A034A
:10040000981750F4E92FF0E0E456FC4F208130E0DB
:100410009F5F90939B0302C02FEF3FEFC9010895A8
:1004200080919A0390E020919B03821B910908958B
:10043000CF92DF92EF92FF920F931F93CF93DF93B0
:100440007C01262F972F8A018091E303882391F066
:10045000C62FD72F6E01C40ED51ECC15DD0571F049
:100460006991D701ED91FC910190F081E02DC701D8
:100470000995F3CF642F822F0E94C401C801DF9138
:10048000CF911F910F91FF90EF90DF90CF90089543
:10049000CF93DF931F92CDB7DEB769832091E3033B
:1004A0002223D1F020910604203240F021E030E0F8
:1004B000FC013383228380E090E015C08091E40347
:1004C000E82FF0E0EB51FC4F998190838F5F809390
:1004D000E4038093060405C061E0CE0101960E940A
:1004E000C40181E090E00F90DF91CF9108950895CD
:1004F00083FF02C098E2892787FD06C0806490913F
:1005000060009093F90202C08091F90294B7977F3E
:1005100094BFF894909160009861909360008093EC
:1005200060007894089508958F929F92AF92BF9241
:100530000F931F93CF93DF93CDB7DEB7A1970FB67D
:10054000F894DEBF0FBECDBF19A2423008F44AE0D6
:100550008E010F5D1F4F842E912CA12CB12CA50173
:1005600094010E944B17E62FB901CA0101501109ED
:10057000EA3014F4E05D01C0E95CD801EC93232B70
:10058000242B252B61F7C8010E945A0BA1960FB6A8
:10059000F894DEBF0FBECDBFDF91CF911F910F91B9
:1005A000BF90AF909F908F900895CF92DF92EF927F
:1005B000FF92CF93DF936C01990FEE08FF08F7FECF
:1005C00017C08DE20E949B07EC0166277727CB01BD
:1005D0006C197D098E099F094AE00E9494028C0FD4
:1005E0009D1FDF91CF91FF90EF90DF90CF90089506
:1005F0004AE0C701B601DF91CF91FF90EF90DF9005
:10060000CF900C949402CF93DF930E945A0BEC018D
:1006100086E592E00E945A0B8C0F9D1FDF91CF91CF
:1006200008950F931F93CF93DF938C01C0E0D0E028
:10063000F801EC0FFD1F6491662371F0E091130443
:10064000F09114040190F081E02D83E194E009958C
:10065000892B11F02196ECCFCE01DF91CF911F9124
:100660000F9108950F931F930E94770F60931B04BF
:1006700070931C0480931D0490931E04E091130456
:10068000F09114040284F385E02D83E194E0099550
:1006900097FF1FC00E94770F00911B0410911C044C
:1006A00020911D0430911E04DC01CB01801B910BB5
:1006B000A20BB30B00911704109118042091190498
:1006C00030911A0480179107A207B307B8F28FEF91
:1006D0009FEF1F910F9108954F925F926F927F92BB
:1006E0008F929F92AF92BF92CF92DF92EF92FF9242
:1006F0006B017C019B01AC010E94A118882319F0B9
:1007000080E892E01AC046015701E894B7F82FEF4D
:100710003FEF4FE75FE7C501B4010E94A1188111C7
:1007200010C02FEF3FEF4FE75FE7C501B4010E9414
:10073000BB1A181634F484E892E00E945A0B7C012C
:100740007FC02FEF3FEF4FE75FE4C701B6010E9484
:100750009C1818161CF488E892E0EFCF2FEF3FEFBB
:100760004FE75FECC701B6010E94BB1A87FDF3CFCC
:1007700020E030E0A901C701B6010E94BB1A87FF43
:1007800009C08DE20E949B075C01F7FAF094F7F82C
:10079000F09402C0A12CB12C2AE037ED43EA5BE3D0
:1007A000C701B6010E9488172B013C010E946D18F9
:1007B0006B017C010E94C01A9B01AC01C301B20114
:1007C0000E9487172B013C014AE0C701B6010E9435
:1007D00094027C01EA0CFB1C8EE20E949B07E80E4F
:1007E000F91E20E030E040E251E4C301B2010E9472
:1007F000211B2B013C010E946D184B01A12CB12C37
:100800004AE0C501B4010E949402E80EF91EC50138
:10081000B4010E94C01A9B01AC01C301B2010E9445
:10082000871720E030E040E251E40E94211B0E9443
:100830006D1880E090E04AE00E949402E80EF91EF4
:1008400086E592E00E945A0B8E0D9F1DFF90EF905F
:10085000DF90CF90BF90AF909F908F907F906F90E0
:100860005F904F900895CF92DF92EF92FF92CF93D7
:10087000DF936C01990FEE08FF08F7FE12C08DE2BE
:100880000E949B07EC0166277727CB016C197D0935
:100890008E099F094AE00E9494027C01EC0EFD1E25
:1008A00006C04AE0C701B6010E9494027C0186E5B9
:1008B00092E00E945A0B8E0D9F1DDF91CF91FF9009
:1008C000EF90DF90CF9008951F920F920FB60F9286
:1008D00011242F933F934F935F936F937F938F9345
:1008E0009F93AF93BF93EF93FF938091B900887F5D
:1008F000803609F49CC068F5883209F45BC090F436
:10090000803109F454C038F4882309F4F6C08830E3
:1009100009F44DC0F6C0883109F44CC0803209F4A6
:100920005DC0EFC0803409F468C048F4803309F436
:1009300055C0883309F0E5C08093E003D8C0803506
:1009400009F44FC0883509F45DC0883409F0D9C076
:10095000D6C0883909F4C7C0A8F4883709F467C03D
:1009600038F4883609F463C0803709F460C0C9C020
:10097000883809F4B8C0803909F45FC0803809F0BC
:10098000C0C05BC0803B09F486C038F4803A09F4EB
:1009900066C0883A09F47FC0B4C0803C09F4A7C09F
:1009A000883C09F4A4C0883B09F48AC0AAC080919D
:1009B000BD0310C09091DF038091DE03981770F59E
:1009C000E091DF0381E08E0F8093DF03F0E0E254DB
:1009D000FC4F80818093BB0085EC86C08093E00350
:1009E0008EC0E091DF0381E08E0F8093DF03809162
:1009F000BB00F0E0E254FC4F80839091DF038091D4
:100A0000DE036EC0E091DF0381E08E0F8093DF0391
:100A10008091BB00F0E0E254FC4F80838091E103C1
:100A200081116DC081E08093BC0384EA61C083E0E2
:100A30008093E20310924103CFCF80914103803233
:100A400008F051C0E091410381E08E0F8093410393
:100A50008091BB00F0E0EF5DFC4F8083BDCF85EC63
:100A60008093BC001092E20380914103803230F405
:100A7000E0914103F0E0EF5DFC4F10826091410393
:100A800070E0E0911F03F091200381E293E009956B
:100A90001092410336C084E08093E20310921E035B
:100AA00010921D03E0911B03F0911C0309958091A6
:100AB0001D03811105C081E080931D031092FB028C
:100AC000E0911E0381E08E0F80931E03F0E0E5505D
:100AD000FD4F80818093BB0090911E0380911D0388
:100AE000981708F479CF85E88093BC000AC085EC9C
:100AF0008093BC001092E20304C01092E0030E94B5
:100B0000BA01FF91EF91BF91AF919F918F917F912A
:100B10006F915F914F913F912F910F900FBE0F906A
:100B20001F9018951F920F920FB60F9211242F93BA
:100B30003F934F935F936F937F938F939F93AF9365
:100B4000BF93EF93FF93E0910A01F0910B01099598
:100B5000FF91EF91BF91AF919F918F917F916F9195
:100B60005F914F913F912F910F900FBE0F901F906B
:100B700018951F920F920FB60F9211242F933F9347
:100B80004F935F936F937F938F939F93AF93BF9395
:100B9000EF93FF93E0910801F09109010995FF910E
:100BA000EF91BF91AF919F918F917F916F915F91E5
:100BB0004F913F912F910F900FBE0F901F9018955E
:100BC000E8982A988EBD0DB407FEFDCF8EB56EBD98
:100BD0000DB407FEFDCF8EB52A9AE89A089560E01D
:100BE0000C94E005CF93C82F81E00E94EF05837E2F
:100BF000682F6C2B81E8CF910C94E00588E20E946D
:100C0000EF05807521F080E00E94EF05F7CF089591
:100C10008627682F62956827062E6695669560255B
:100C2000062E669560256770082E892F66950794B5
:100C30006795902D862706946795902586270895B9
:100C4000CF9380914903853009F054C060E485EA70
:100C50000E94E00584E20E94EF058093FA027894F6
:100C6000C8E488E20E94EF058075D9F380914803BB
:100C700081110FC0E0914303F09144038091480338
:100C800091E0980F9093480390914703E80FF11D6E
:100C9000908380E00E94EF05E0914303F0914403CC
:100CA0009091480321E0290F20934803E90FF11D9B
:100CB0008083682F80914503909146030E94080627
:100CC000909346038093450380914C03833410F046
:100CD000C093480380914C032091480390E0049610
:100CE00030E082179307ACF080914803883408F411
:100CF000B8CF0FC088E20E94EF0583FF0AC084E0EE
:100D0000809349030E94F20560E885EACF910C9434
:100D1000E005CF910895CF92DF92EF92FF921F935B
:100D2000CF93DF936C01EC0138E0E32EF12CC0315E
:100D3000D10508F441C0CE0110E08032910530F0B9
:100D40001F5F193019F096958795F7CF1092F8022A
:100D5000812F0E94780220917A0080917A008F770B
:100D600080937A0093B7917F946093BFF89483B790
:100D7000816083BF85B7806685BF95B79F79906492
:100D800095BF7894889583B78E7F83BF20937A0030
:100D90008FEF0E947802C70102C0880F991F1A9531
:100DA000E2F7C81BD90B2091F802222319F0C81BC7
:100DB000D90BBDCF80E001C081E04091F402509199
:100DC000F5026091F6027091F702CC1ADD0A4C0D23
:100DD0005D1D611D711D4093F4025093F5026093F7
:100DE000F6027093F702DF91CF911F91FF90EF9081
:100DF000DF90CF900895DC01E0E0615038F08D91F4
:100E0000E827F0E0E357FF4FE491F7CF8E2F0895E6
:100E1000CF92DF92EF92FF920F931F93CF93DF93C6
:100E20001F92CDB7DEB76C01E62E08E010E0FF247C
:100E3000F39461E08F2D8E2109F460E0C6014983AF
:100E40000E94430EFF0C0150110949810115110543
:100E500081F7411115C0F894D6011196ED91FC91DE
:100E6000129791818C918095892381831196ED91C0
:100E7000FC91129792818C9180958923828378943A
:100E80000F90DF91CF911F910F91FF90EF90DF9026
:100E9000CF900895CF92DF92EF92FF920F931F931E
:100EA000CF93DF931F92CDB7DEB78C01F62E40E0D3
:100EB00065E579830E940807CF2C7981D72E7601CA
:100EC00088E0E80EF11CF60161916F0140E0C80175
:100ED0000E940807CE14DF04B1F70F90DF91CF9185
:100EE0001F910F91FF90EF90DF90CF900895FC013C
:100EF00090810180F281E02DF8948181892B81839A
:100F00002281892F809528232283A7E0B0E01197C2
:100F1000F1F7218182238183A3E2B0E01197F1F7F9
:100F200080817894EFECF0E03197F1F7982381E03D
:100F300009F480E00895E0911304F0911404019005
:100F4000F081E02D682F83E194E009941F93CF9303
:100F5000DF93CDE8D1E0FE011491112351F01A3056
:100F600019F48DE00E949B07812F0E949B07219618
:100F7000F2CFDF91CF911F9108958F929F92AF9200
:100F8000BF92CF92DF92EF92FF920F931F93CF9376
:100F9000DF938C01EB018091B5049091B6040E941F
:100FA000720E882309F43DC0B8018091B504909178
:100FB000B6040E944A0740E06EEB8091B504909120
:100FC000B6040E9408078E015E0189E0A80EB11CDC
:100FD0008090B5049090B60488E0C82ED12CEE2401
:100FE000E394F12CC4010E9477078111FE28EE0CD6
:100FF000E1E0CE1AD108B1F7F801F1928F01EA15BC
:10100000FB0531F78091B5049091B6040E94720EF1
:10101000813039F468E0CE010E94FB0691E028851A
:10102000821390E0892FDF91CF911F910F91FF9054
:10103000EF90DF90CF90BF90AF909F908F900895EA
:10104000CF93DF93CDB7DEB729970FB6F894DEBF05
:101050000FBECDBFFC0120812031D1F0BE016F5FFA
:101060007F4F0E94BD07882389F08D818F3361F007
:1010700020F48F3159F489E00CC08F3519F08F3787
:1010800039F004C08BE005C08AE003C080E001C0F5
:101090008CE029960FB6F894DEBF0FBECDBFDF916E
:1010A000CF910895AF92BF92CF92DF92EF92FF92CD
:1010B0000F931F93CF93DF931F92CDB7DEB75C01E1
:1010C000D62EE72EFC018585811105C0C5010E9441
:1010D000720E811106C0F50113861586148680E014
:1010E00065C040E060EFC5010E94080701E0F12CF7
:1010F000C12C11E0C5010E947707682FC5016983E3
:101100000E9477076981613019F48130B9F433C0E6
:101110004F2D50E068131BC0F5018385181730F47C
:10112000E40FF51F8381802349F402C0181731F0C2
:1011300060E0193058F4F501148708C0F501EF0D8F
:10114000F11D8381802B838361E009C0C12EF501ED
:10115000E40FF51F9381802F809589238383C50138
:101160000E94430E1F5F000F11F4F39401E0F7E0BB
:10117000FF1508F0BFCF113408F4ADCFF501C386D9
:10118000C11002C081E08587F5018381882309F4BD
:10119000A2CFD5011396ED2DFE2D9501255F3F4F72
:1011A0008D918193A217B307D9F781E00F90DF915A
:1011B000CF911F910F91FF90EF90DF90CF90BF9054
:1011C000AF900895382F20910604909105042132A4
:1011D00008F049C08091E2038111FCCF42E04093C6
:1011E000E2033093E1033FEF3093E0031092DF031B
:1011F0002093DE03A5EEB3E04EEB53E0FA013E2F61
:10120000341B321718F43D913193F9CF1092BD037E
:101210002091BD03990F922B9093BD039091BC0335
:10122000913061F41092BC039091BD039093BB0088
:101230009091BC0093FDF8CF95EC01C095EE909392
:10124000BC009091E2039230E1F39091E0039F3F64
:1012500079F08091E003803241F08091E0038033A7
:1012600031F084E005C081E003C082E001C083E08A
:101270001092E403109206041092E3030895EF9293
:10128000FF920F931F93CF93DF937C01EB0180912B
:10129000E2038111FCCF2C2FC13208F020E291E053
:1012A0009093E2039093E1038FEF8093E003109219
:1012B000DF03820F8093DE039093BD039091BD0303
:1012C00090689093BD038091BC03813061F41092CB
:1012D000BC038091BD038093BB008091BC0083FD63
:1012E000F8CF85EC01C085EE8093BC008091E203CD
:1012F0008130E1F38091DF03821710F42091DF0346
:10130000AEEBB3E04CE953E0FA018E2F841B821759
:1013100018F48D918193F9CF10929B0320939A0337
:1013200030E02C173D07ECF38701C8018E199F09A7
:101330008C179D0744F487E094E00E94FC01F801BB
:1013400081938F01F2CF81E090E0DF91CF911F91E7
:101350000F91FF90EF900895EF92FF920F931F93DC
:10136000CF93DF938C017B0181E08093E30380E4E2
:10137000809305041092E40310920604C0E0D0E0CC
:10138000CE15DF0554F40C0F1D1FF801608187E0B6
:1013900094E00E9448022196F3CF81E0DF91CF9143
:1013A0001F910F91FF90EF900C94E208FF920F9322
:1013B0001F93CF93DF93CDB7DEB728970FB6F8947E
:1013C000DEBF0FBECDBF85EE888761E070E0CE0145
:1013D00008960E94AC0962E070E0CE0101960E947E
:1013E0003F092981822F90E0A0E0B0E04427582FE8
:1013F000692F7A2F8A819A01AB01282BA4EDB0E3E3
:101400000E94F51B8C010855124080EE8F8361E02D
:1014100070E0CE0107960E94AC0962E070E0CE0158
:1014200001960E943F092981822F90E0A0E0B0E060
:101430004427582F692F7A2F8A819A01AB01282BD4
:10144000A4EAB4E40E94F51BBC016D547241F62E6F
:101450007A836983072E000C880B990B0E94C21AAD
:1014600026E636E646EE5FE30E94211B20E030E0F0
:1014700048E455E40E9488170E9466187C836B83B9
:101480001E830D832F2D3A81462F5C81602F7E8134
:1014900080E090E028960FB6F894DEBF0FBECDBF77
:1014A000DF91CF911F910F91FF9008950F931F939C
:1014B000CF93DF9314E0CAE4D3E005E080914903C1
:1014C000853009F076C080914803811172C084E0B4
:1014D000809349030E94F20588E080934C03E2E97F
:1014E000F3E080E090E0DC01A35BBC4F21912C9302
:1014F000019688309105B9F78091420380934B03A0
:10150000609147038FEF9FEF0E9408069093460378
:101510008093450390914C038EEF891B8093490380
:101520000E94FE058CE00E94F20560E085EA0E94C0
:10153000E0058091490383300CF0A6C088E20E9448
:10154000EF0587FDF6CF8091490387FF1BC090917F
:101550004C0380914903E0914303F0914403E90F68
:10156000F11DE80FF11D87FDFA95C3816C2F809165
:101570004503909146030E9408069093460380938A
:1015800045030DC080914903882329F0813031F44F
:10159000C091460304C0C091450301C0CAEA6C2F44
:1015A00080E80E94E005809149038F5F80934903A2
:1015B000C0CF80914903843011F510924C031092F2
:1015C0004803609147038FEF9FEF0E9408069093B6
:1015D000460380934503D0934403C0934303009391
:1015E00049030E94FE0560E885EA0E94E00580E16B
:1015F0000E94F20562E08EE90E94E00510C085308D
:1016000071F480914C032091480390E0049630E0FF
:10161000821793077CF080914803883458F48FEF49
:101620009FEF9093D3048093D2048091D204909141
:10163000D30444CF1093490384E00E94F2058091C3
:101640004C03833418F081E090E0EBCF80914503A8
:1016500090914603892BB9F780914B0386FF11C007
:10166000309142033F3169F020914B032F7181E0AB
:1016700090E0231302C080E090E09195819591095C
:10168000D0CF80E090E0CDCFDF91CF911F910F912F
:10169000089580914903843064F483B7817F8C601E
:1016A00083BF83B7816083BF889583B78E7F83BFF5
:1016B000F0CF0895009769F0FC0101900020E9F750
:1016C0003197AF01481B590BBC0183E194E00C94A6
:1016D0006E0B80E090E008950C945A0BCF92DF924D
:1016E000EF92FF920F931F93CF93DF936C017A01D8
:1016F0008B01C0E0D0E0CE15DF0589F0D8016D91F7
:101700008D01D601ED91FC910190F081E02DC60193
:101710000995892B11F47E0102C02196ECCFC701F7
:10172000DF91CF911F910F91FF90EF90DF90CF90BD
:101730000895089580E090E00895FC01538D448D54
:10174000252F30E0842F90E0821B930B541710F06C
:10175000CF96089501970895FC01918D828D981779
:1017600061F0828DDF01A80FB11D5D968C91928D85
:101770009F5F9F73928F90E008958FEF9FEF089582
:10178000FC01918D828D981731F0828DE80FF11D4B
:10179000858D90E008958FEF9FEF0895FC01918D66
:1017A000228D892F90E0805C9F4F821B91098F735F
:1017B0009927089583E194E00E94CE0B21E0892BC4
:1017C00009F420E0822F0895FC01848DDF01A80F29
:1017D000B11DA35ABF4F2C91848D90E001968F7359
:1017E0009927848FA689B7892C93A089B1898C9178
:1017F00080648C93938D848D981306C00288F3893E
:10180000E02D80818F7D80830895EF92FF920F936A
:101810001F93CF93DF93EC0181E0888F9B8D8C8D9C
:10182000981305C0E889F989808185FD24C0F62ECA
:101830000B8D10E00F5F1F4F0F731127E02E8C8D63
:10184000E8120CC00FB607FCFACFE889F98980814D
:1018500085FFF5CFCE010E94E40BF1CF8B8DFE0109
:10186000E80FF11DE35AFF4FF0820B8FEA89FB89E5
:101870008081806207C0EE89FF896083E889F989E9
:1018800080818064808381E090E0DF91CF911F911F
:101890000F91FF90EF900895CF93DF93EC01888D27
:1018A0008823C9F0EA89FB89808185FD05C0A88964
:1018B000B9898C9186FD0FC00FB607FCF5CF8081EA
:1018C00085FFF2CFA889B9898C9185FFEDCFCE0134
:1018D0000E94E40BE7CFDF91CF91089580E090E084
:1018E000892B29F00E94DA0B81110C9400000895D5
:1018F0000E949D1A0F931F93CF93DF93EC01888171
:101900009981009729F02A813B812617370788F4AF
:101910008B016F5F7F4F0E94D319009761F099830D
:1019200088831B830A832C813D81232B11F4FC01C6
:10193000108281E001C080E0DF91CF911F910F9173
:1019400008951F920F920FB60F9211242F933F9379
:101950004F935F936F937F938F939F93AF93BF93B7
:10196000EF93FF9383E194E00E94E40BFF91EF91EA
:10197000BF91AF919F918F917F916F915F914F91A7
:101980003F912F910F900FBE0F901F9018951F92AF
:101990000F920FB60F9211242F938F939F93EF9373
:1019A000FF93E0912304F09124048081E0912904C5
:1019B000F0912A0482FD12C0908180912C048F5FE7
:1019C0008F7320912D04821751F0E0912C04F0E0E8
:1019D000ED5EFB4F958F80932C0401C08081FF91B9
:1019E000EF919F918F912F910F900FBE0F901F90AD
:1019F0001895CF93DF9390ED980F9A3060F4909103
:101A00001F05990F292F220F220F920F9053890F34
:101A100080931F05B0C081320CF4ABC0893619F138
:101A20006CF4823639F1873609F060C080911F0569
:101A300090E090930601809305015AC0833781F1AD
:101A4000863709F053C088EE92E00E9411034AE005
:101A50006FE672E080E090E00E94940286EE92E0F1
:101A60000E94110345C080911F05882319F08093BF
:101A700007013EC080911F05843031F0883031F07D
:101A8000893031F080E005C081E003C082E001C010
:101A900083E080931F05882359F18093040128C0B7
:101AA0008CE892E00E940303C0E0D0E060E0CE0149
:101AB0000E94E71B2196C11584E0D807B9F7609111
:101AC000070180E090E00E94E71B6091040181E043
:101AD00090E00E94E71B6091050182E090E00E9487
:101AE000E71B86E992E00E94030302C00E94A6075A
:101AF0008091B8028823A9F184EE92E00E9411033C
:101B000081EE92E00E941103809107018F7190E0B5
:101B10000E94D5028EED92E00E9411038091050192
:101B2000909106010E94D5028AED92E00E94110375
:101B300080910401813039F0823041F0833049F0E6
:101B400080E090E008C081EB91E005C084E693E07E
:101B500002C083E993E00E94D50285ED92E00E94E5
:101B6000110383ED92E00E94110386E592E00E944A
:101B70005A0B10921F05DF91CF910895BF92CF921B
:101B8000DF92EF92FF920F931F93CF93DF932AE799
:101B9000E22EF12CF701B0800BE710E0F801C080D5
:101BA000CCE7D0E0D8800E948B06F701B082F80124
:101BB000C082D882DF91CF911F910F91FF90EF905B
:101BC000DF90CF90BF9008951F920F920FB60F92A3
:101BD00011248F938091F8028F5F8093F8028F9188
:101BE0000F900FBE0F901F901895833081F028F44E
:101BF000813099F08230A1F008958730A9F08830C3
:101C0000B9F08430D1F4809180008F7D03C0809141
:101C100080008F7780938000089584B58F7702C00D
:101C200084B58F7D84BD08958091B0008F7703C007
:101C30008091B0008F7D8093B00008953FB7F894F5
:101C40008091210590912205A0912305B091240552
:101C500026B5A89B05C02F3F19F00196A11DB11D07
:101C60003FBFBA2FA92F982F8827820F911DA11D42
:101C7000B11DBC01CD0142E0660F771F881F991F7F
:101C80004A95D1F70895FC0190810180F281E02D01
:101C9000892F809560FF12C0F8942281822382836D
:101CA0008181892B8183A3E2B0E01197F1F78281D2
:101CB000982B9283789487ED90E011C0F89422815C
:101CC000822382838181892B8183AFEFB0E01197DA
:101CD000F1F78281982B928378948FE090E00197BE
:101CE000F1F70895FC0190810180F281E02DF894D4
:101CF0008181292F20958223818378948DE743E089
:101D000050E0815021F1DA011197F1F73081392348
:101D1000C1F3F8948281822382838181892B81831C
:101D20007894ABE7B7E01197F1F7F8948181282315
:101D30002183A3E1B1E01197F1F78081982381E03D
:101D400009F080E07894E3E6F6E03197F1F7089542
:101D5000CF93DF93282F30E0F901E65FFC4F8491A9
:101D6000F901E154FD4FD491F901E555FD4FC491BE
:101D7000CC2391F081110E94F50DEC2FF0E0EE0FD5
:101D8000FF1FEF55FD4FA591B491EC91ED2381E03C
:101D900090E021F480E002C080E090E0DF91CF91FC
:101DA00008951F93CF93DF93282F30E0F901E65F6A
:101DB000FC4F8491F901E154FD4FD491F901E555AF
:101DC000FD4FC491CC23C9F0162F81110E94F50D4F
:101DD000EC2FF0E0EE0FFF1FE050FD4FA591B49106
:101DE0008FB7F894111105C09C91ED2FE095E92370
:101DF00002C0EC91ED2BEC938FBFDF91CF911F913F
:101E00000895CF93DF9390E0FC01E154FD4F2491BE
:101E1000FC01E555FD4F8491882361F190E0880F26
:101E2000991FFC01EA50FD4FC591D491FC01E0508F
:101E3000FD4FA591B491611109C09FB7F8948881B5
:101E4000209582238883EC912E230BC0623061F4AD
:101E50009FB7F8943881822F809583238883EC91F3
:101E60002E2B2C939FBF06C08FB7F894E8812E2BA2
:101E700028838FBFDF91CF9108958F929F92AF9269
:101E8000BF92CF92DF92EF92FF926B017C010E9492
:101E90001E0E4B015C01C114D104E104F104F1F008
:101EA0000E941E0EDC01CB0188199909AA09BB0901
:101EB000883E9340A105B10570F321E0C21AD10814
:101EC000E108F10888EE880E83E0981EA11CB11C81
:101ED000C114D104E104F10419F7DDCFFF90EF90B4
:101EE000DF90CF90BF90AF909F908F9008952FB7C5
:101EF000F8946091F4027091F5028091F60290914D
:101F0000F7022FBF08951F920F920FB60F92112460
:101F10002F933F938F939F93AF93BF938091F4023E
:101F20009091F502A091F602B091F7023091200550
:101F300023E0230F2D3720F40196A11DB11D05C00C
:101F400026E8230F0296A11DB11D20932005809342
:101F5000F4029093F502A093F602B093F7028091F9
:101F6000210590912205A0912305B09124050196A9
:101F7000A11DB11D8093210590932205A0932305F7
:101F8000B0932405BF91AF919F918F913F912F9175
:101F90000F900FBE0F901F901895CF93DF93CDB782
:101FA000DEB761970FB6F894DEBF0FBECDBF789451
:101FB00084B5826084BD84B5816084BD85B582604E
:101FC00085BD85B5816085BD80916E0081608093FF
:101FD0006E00109281008091810082608093810068
:101FE0008091810081608093810080918000816078
:101FF000809380008091B10084608093B1008091D3
:10200000B00081608093B00080917A0084608093FA
:102010007A0080917A00826080937A0080917A00C1
:10202000816080937A0080917A00806880937A0042
:102030001092C10061E089E00E94010F61E089E037
:102040000E94D10E62E086E00E94010F62E080E112
:102050000E94010F62E08EE00E94010F62E084E1C5
:102060000E94010F62E085E10E94010F62E084E0BE
:102070000E94010F62E087E00E94010F62E088E0A9
:102080000E94010F87E00E94A80E7C0188E00E9458
:10209000A80E01E0892B09F400E0E0912304F091FF
:1020A000240482E08083E0911F04F09120041082D8
:1020B000E0912104F091220480E1808310922B04AE
:1020C000E0912704F091280486E08083E0912504C4
:1020D000F0912604808180618083E0912504F09155
:1020E0002604808188608083E0912504F091260495
:1020F000808180688083E0912504F091260490819E
:102100009F7D90838FE391E00E94030385E591E03A
:102110000E946C0B4AE06FE672E080E090E00E9463
:10212000940286E592E00E945A0B64E670E080E03B
:1021300090E00E943D0F81E08093B80280E090E043
:102140000E94DF1B8F3F21F08093070111E001C047
:1021500010E081E090E00E94DF1B8F3F19F0809338
:1021600004011F5F82E090E00E94DF1B8F3F39F087
:10217000282F30E0309306012093050102C011237F
:1021800019F089E691E002C083E891E00E94030320
:1021900090910701EF2829F4002309F4D5C59F5F2A
:1021A00003C0011103C09E5F9093070100910501D8
:1021B000F090040110910701EFEFEF0DE33028F4E8
:1021C000F0E0EE5EFE4FA08101C0A0E0B0E020E8AC
:1021D00036E948E950E00E94F51B4B015C01AF2D48
:1021E000B0E020E039E04DE350E00E94F51BDC0157
:1021F000CB01880D991DAA1DBB1DBC01CD0152E06C
:10220000660F771F881F991F5A95D1F729E03DE384
:1022100040E050E00E944B17DA01C90166E0880FE8
:10222000991FAA1FBB1F6A95D1F78093B90290939B
:10223000BA02A093BB02B093BC0200934703812F64
:102240008F718093420364E170E080E090E00E942F
:102250003D0F80914203882369F080E296E09093DD
:10226000090180930801809169008360809369006F
:10227000E89A07C0E89887E792E090930901809375
:1022800008012A9A229A2A9A84B18C6284B980E53C
:102290008CBD8DB581608DBD6AEA8FEA0E94E00534
:1022A0008FE20E94EF058A3AB9F765E58FEA0E944E
:1022B000E0058FE20E94EF058535B9F748E6E42E88
:1022C00040E0F42EF7018491882349F0319664911F
:1022D00080680E94E005F2E0EF0EF11CF3CF609100
:1022E000470381EB0E94E005C090B902D090BA028A
:1022F000E090BB02F090BC02B7018827992787E8DD
:102300000E94E00599278F2D7E2D6D2D88E80E9473
:10231000E0056C2D89E80E94E00584E08093490384
:102320001093BD0284E991E00E94030380EA91E0EA
:102330000E946C0B6091070170E080E090E04AE041
:102340000E94940287EA91E00E946C0B8091040144
:10235000813021F48FEA91E00E946C0B809104019E
:10236000823021F486EB91E00E946C0B8091040195
:10237000833021F48DEB91E00E946C0B84EC91E0B2
:102380000E946C0B80910501909106010E9433041C
:102390000AE010E010939303009392030E94560A00
:1023A00064E670E080E090E00E943D0F015011096A
:1023B00088F70E94490B109293031092920380E0D9
:1023C0000E94F20584E08093490361E085E00E9469
:1023D000010F60E081E00E94010F62E083E00E9453
:1023E000010F8FEC91E00E94030382E10E94A80E8E
:1023F000019709F49DC083E10E94A80E019709F49A
:1024000097C01092CB0287E092E00E94030361E044
:1024100085E00E94D10E62E370E080E090E00E94CF
:102420003D0FE091B504F091B6041386158614862D
:10243000DF011B9633961E92AE17BF07E1F710928D
:10244000B40411E0BE016F5F7F4F8091B50490919D
:10245000B6040E945208882309F44AC067E0CE01FE
:1024600001960E94FB0698858913ECCF8091B004F9
:10247000811127C08091B5049091B6040E94720E1C
:10248000BE016F5F7F4F8091B5049091B6040E94AA
:102490004A0740E064EB8091B5049091B6040E9435
:1024A00008078091B5049091B6040E947707082F21
:1024B0008091B5049091B6040E94720E002309F435
:1024C000C5C00091B104CE0101960E94200880177A
:1024D00018F48091B10404C0CE0101960E94200836
:1024E0008093B1048091B4048F5F8093B404AACF29
:1024F0001092B2040091B40410E01093CD02009346
:10250000CC02F12C6F2D70E0601771070CF0A1C0A8
:1025100093E0660F771F9A95E1F762537D4F83EC46
:1025200094E00E945208882309F493C0F394EACF00
:1025300010929B0310929A031092E40310920604E7
:102540001092E20311E01093E1031092BC0361E0EA
:1025500082E10E94D10E61E083E10E94D10E809160
:10256000B9008E7F8093B9008091B9008D7F8093F0
:10257000B90088E48093B80085E48093BC00109390
:10258000E30380E4809305041092E40310920604B0
:1025900081E00E94E208811102C01093BE0262E055
:1025A00070E082E091E00E94AC0968E070E0CE014A
:1025B00001960E943F0962E070E080E091E00E9495
:1025C000AC0966E070E0CE0101960E943F090981E6
:1025D00010E00115110509F414CF81E08093CB02BE
:1025E0000E94D60929833A834B835C836D837E8363
:1025F0008CED91E00E946C0BC8010E94330481EFC6
:1026000091E00E946C0B69817A81072E000C880B87
:10261000990B0E94C21A20E030E048EC52E40E947C
:10262000F4170E946C038CEF91E00E946C0B6D819B
:102630007E8180E090E00E94C01A20E030E048EC0B
:1026400052E40E94F4170E946C03E1CE1093B00490
:1026500038CF60E085E00E94D10E0115110539F4F4
:1026600084E192E00E9403031092EE020AC081E02E
:102670008093EE02C8010E94D50286E192E00E949A
:10268000030364E670E080E090E00E943D0F10924A
:10269000C3021092C4021092C5021092C60280EDCD
:1026A00092E0A0E0B0E08093EF029093F002A0935C
:1026B000F102B093F2021092F3028091B8028111FC
:1026C0001CC080B7806880BF809164008260809366
:1026D000640080916400806880936400809164004D
:1026E00084608093640080916400886080936400BB
:1026F0008091B80281119BC0A2C088E592E00E943F
:1027000003038FE192E00E94030385E492E00E94BC
:1027100003030E94770F6093BF027093C0028093FF
:10272000C1029093C2020E94770F0091BF021091E4
:10273000C0022091C1023091C20208571C4E2F4F97
:102740003F4F601771078207930708F0BACF83E104
:1027500094E00E94CE0B892B31F31A8219821C82DD
:102760001B821E821D8260E070E0CE0101960E94F5
:102770007A0C29813A8181110DC02115310519F09A
:10278000C9010E943B191A8219821E821D821C8275
:102790001B8220C01E821D8268E572E0C9010E9472
:1027A000B41A18C08A871B860F5F1F4FB801CE016D
:1027B00001960E947A0C882369F029813A818D81E3
:1027C0009E81BE01665F7F4F820F931F0E94B41AE5
:1027D0001E830D830E9432030D811E8197FFE2CF7D
:1027E000E980FA80012B41F063E572E0C7010E94A5
:1027F000AB1A11E0892B09F010E0C7010E943B19C8
:10280000112309F490CF89E592E00E9403030E940E
:10281000A60786E70E94F90C83E194E00E94CE0BA4
:10282000892BD1F383E194E00E94AC0BF3CF80912C
:10283000CB02882321F060E089E00E94D10E81E77D
:1028400092E00E94030383E194E00E944C0CE0912B
:102850002504F091260480818F7E8083E0912504F9
:10286000F09126048081877F8083E0912504F09198
:10287000260480818F778083E0912504F0912604DF
:1028800080818F7D808380912D0480932C0411E4BE
:102890000FE58091F302882331F082E390E00E94FB
:1028A0008B061092F30280E590E00E948B06813047
:1028B00099F48091EF029091F002A091F102B09111
:1028C000F2020196A11DB11D8093EF029093F002D8
:1028D000A093F102B093F2028091EF029091F00286
:1028E000A091F102B091F202853A9E40A105B10596
:1028F00008F417C28091EE02882309F47BC161E0DD
:1029000085E00E94D10E82E390E00E94BE0DBEECF5
:10291000EB2EB2E0FB2EA12CB12C8BE0882E809107
:10292000CC029091CD02A816B9060CF0B7C0C70131
:102930000E9420088B3009F4AAC0BE016F5F7F4F50
:10294000C7010E94BD07882309F4A1C0F701808157
:10295000803109F49CC00D838091B5049091B60438
:102960000E94720EB7018091B5049091B6040E9446
:102970004A0740E06EE48091B5049091B6040E944D
:10298000080740E06B818091B5049091B6040E94E5
:10299000080740E06C818091B5049091B6040E94D4
:1029A0000807F7018081803141F040E06D8180911E
:1029B000B5049091B6040E9408078091B5049091E7
:1029C000B6040E94720EB7018091B5049091B604CE
:1029D0000E944A074091B00468E48091B504909148
:1029E000B6040E94080764E170E080E090E00E9475
:1029F0003D0F8091B004882331F06AE070E080E000
:102A000090E00E943D0F8091B5049091B6040E9421
:102A1000720E8091B1048092B1048C30C0F1C12C4F
:102A2000D12C8091B40490E0C816D90684F57C2C92
:102A3000E091B504F091B604138615861486DF0183
:102A40001B9633961E92AE17BF07E1F7912CBE017D
:102A5000665F7F4F8091B5049091B6040E94520842
:102A6000811162C19090B104CE010A960E942008A3
:102A7000891518F48091B10404C0CE010A960E9411
:102A800020088093B104FFEFCF1ADF0ACACF2FEFDF
:102A9000A21AB20A48E0E40EF11C41CF8091B504BD
:102AA0009091B6040E94720E40E06CEC8091B504E7
:102AB0009091B6040E9408074091B00464E48091AC
:102AC000B5049091B6040E9408078091B20488234F
:102AD000A9F0E091B104E950E33040F4F0E0EE0FEA
:102AE000FF1FEB5EFE4F6081718102C06EEE72E0EF
:102AF000072E000C880B990B0E943D0F87E791E091
:102B00000E94BE0DBE016F5F7F4F8EEC92E00E946F
:102B1000BD07882361F1698158E0659FB0011124E8
:102B20008A81282F30E0322F2227330F330F330FC3
:102B3000262B372B8091CE028031E1F4688570E03E
:102B40008F81FB01E81BF109CF019695982F88270B
:102B5000979587950E94371760517109207F53E040
:102B6000220F331F5A95E1F7620F731F04C060E80C
:102B700074EE01C0B9016138F4EE7F077CF0072ED6
:102B8000000C880B990B0E94C21A20E030E040E054
:102B90005CE30E94211B6B017C0106C0C12CD12C7F
:102BA0009EEFE92E92ECF92E60E085E00E94D10EB6
:102BB00020E030E04AEF52E4C701B6010E94BB1AA0
:102BC00087FF18C020E030E040E252ECC701B601B8
:102BD0000E949C18181674F420E030E040E251E4A2
:102BE000C701B6010E94211B0E94661870939503CD
:102BF0006093940310937C0080917A0080648093AA
:102C00007A0080917A0086FDFCCF609178008091F7
:102C1000790070E0782B072E000C880B990B0E942E
:102C2000C21A26E234EE43E05DE30E94211B0E94BB
:102C3000661870939903609398038091CB02882360
:102C4000C1F1809164008F77809364000E94D6095F
:102C500029833A834B835C836D837E8369817A8188
:102C6000072E000C880B990B0E94C21A2DEC3CEC2D
:102C70004CEC5DE30E94211B0E9466187093930345
:102C8000609392036D817E8180E090E00E94C01A83
:102C90002DEC3CEC4CEC5DE30E94211B0E9466187D
:102CA000709397036093960380916400806880938B
:102CB00064008091B802882311F1809164008B7FB9
:102CC0008093640084E00E94F20584E0F82EF09284
:102CD00049038EE190E00E94BE0D0E94560A0E94B8
:102CE000490B80E00E94F205F092490384E690E0EF
:102CF0000E94BE0D809164008460809364000E94F5
:102D0000770F6093C7027093C8028093C9029093B3
:102D1000CA021092EF021092F0021092F102109289
:102D2000F2020E946E0CB5CD971009C067E0CE018B
:102D30000A960E94FB069989891709F493CE939409
:102D4000791408F48FCE83CE9D5F2ECA10920A04A8
:102D50001092090488EE93E0A0E0B0E080930B04A9
:102D600090930C04A0930D04B0930E042FE131E076
:102D7000309308042093070410921604109215044F
:102D80008093170490931804A0931904B0931A0425
:102D900081E391E0909314048093130485EC90E018
:102DA0009093200480931F0484EC90E0909322047D
:102DB0008093210480EC90E090932404809323047A
:102DC00081EC90E0909326048093250482EC90E0BF
:102DD000909328048093270486EC90E090932A0433
:102DE0008093290410922C0410922D0410922E042A
:102DF00010922F0460E081E10E94010FE0EDF2E00B
:102E0000E491E093C304ECEBF2E0E491F0E0EE0F28
:102E1000FF1FEF55FD4F859194919093C5048093CA
:102E2000C4041092CE041092D0041092CF04EEECA1
:102E3000F4E0129284E0E63CF807D9F783E992E0E7
:102E40009093C2048093C10483EC94E09093B60401
:102E50008093B5041092B4041092B00489E080937A
:102E6000B10481E08093B2048093B304089597FB8A
:102E7000072E16F4009407D077FD09D00E946D1735
:102E800007FC05D03EF4909581959F4F089570956D
:102E900061957F4F0895A1E21A2EAA1BBB1BFD016D
:102EA0000DC0AA1FBB1FEE1FFF1FA217B307E40729
:102EB000F50720F0A21BB30BE40BF50B661F771F81
:102EC000881F991F1A9469F7609570958095909561
:102ED0009B01AC01BD01CF010895AA1BBB1B51E1B1
:102EE00007C0AA1FBB1FA617B70710F0A61BB70B7A
:102EF000881F991F5A95A9F780959095BC01CD011F
:102F00000895EE0FFF1F0590F491E02D099450589D
:102F1000BB27AA270E949F170C94A51B0E94971BF2
:102F200038F00E949E1B20F039F49F3F19F426F4DC
:102F30000C94941B0EF4E095E7FB0C948E1BE92F88
:102F40000E94B61B58F3BA176207730784079507E8
:102F500020F079F4A6F50C94D81B0EF4E0950B2E16
:102F6000BA2FA02D0B01B90190010C01CA01A001DB
:102F70001124FF27591B99F0593F50F4503E68F136
:102F80001A16F040A22F232F342F4427585FF3CF77
:102F9000469537952795A795F0405395C9F77EF448
:102FA0001F16BA0B620B730B840BBAF09150A1F091
:102FB000FF0FBB1F661F771F881FC2F70EC0BA0F17
:102FC000621F731F841F48F4879577956795B7959F
:102FD000F7959E3F08F0B0CF9395880F08F099279A
:102FE000EE0F9795879508950E9408180C94A51BDD
:102FF0000E949E1B58F00E94971B40F029F45F3FEF
:1030000029F00C948E1B51110C94D91B0C94941B19
:103010000E94B61B68F39923B1F3552391F3951BD6
:10302000550BBB27AA2762177307840738F09F5FE9
:103030005F4F220F331F441FAA1FA9F335D00E2E56
:103040003AF0E0E832D091505040E695001CCAF7C3
:103050002BD0FE2F29D0660F771F881FBB1F261786
:1030600037074807AB07B0E809F0BB0B802DBF015D
:10307000FF2793585F4F3AF09E3F510578F00C942C
:103080008E1B0C94D91B5F3FE4F3983ED4F38695D6
:1030900077956795B795F7959F5FC9F7880F911D4D
:1030A0009695879597F90895E1E0660F771F881F39
:1030B000BB1F621773078407BA0720F0621B730BEC
:1030C000840BBA0BEE1F88F7E09508950E946D18E7
:1030D0006894B1110C94D91B08950E94BE1B88F00E
:1030E0009F5798F0B92F9927B751B0F0E1F0660FCC
:1030F000771F881F991F1AF0BA95C9F714C0B1300D
:1031000091F00E94D81BB1E008950C94D81B672F52
:10311000782F8827B85F39F0B93FCCF3869577953B
:103120006795B395D9F73EF4909580957095619524
:103130007F4F8F4F9F4F08950E94FD1A08F48FEF25
:1031400008950E94FD1A880B990B0895CF93DF9381
:103150008230910510F482E090E0E0912705F09133
:10316000280520E030E0C0E0D0E0309711F1408148
:10317000518148175907C0F04817590761F48281F7
:103180009381209719F09B838A832BC09093280505
:103190008093270526C02115310519F042175307E2
:1031A00018F49A01BE01DF01EF010280F381E02DE6
:1031B000DCCF2115310509F1281B390B24303105ED
:1031C00090F412968D919C9113976115710521F0E1
:1031D000FB019383828304C0909328058093270585
:1031E000FD01329644C0FD01E20FF31F81939193DC
:1031F000225031092D933C933AC0209125053091FE
:103200002605232B41F420910E0130910F013093BC
:1032100026052093250520910C0130910D012115E3
:10322000310541F42DB73EB7409110015091110185
:10323000241B350BE0912505F0912605E217F307D5
:10324000A0F42E1B3F0B2817390778F0AC014E5F16
:103250005F4F2417350748F04E0F5F1F5093260528
:10326000409325058193919302C0E0E0F0E0CF0107
:10327000DF91CF9108950F931F93CF93DF93009722
:1032800009F48CC0FC013297138212820091270549
:10329000109128050115110581F420813181820FDB
:1032A000931F20912505309126052817390779F5B8
:1032B000F0932605E093250571C0D80140E050E069
:1032C000AE17BF0750F412962D913C911397AD01A4
:1032D0002115310509F1D901F3CF9D01DA013383BD
:1032E000228360817181860F971F8217930769F48B
:1032F000EC0128813981260F371F2E5F3F4F318324
:1033000020838A819B8193838283452B29F4F093C8
:103310002805E093270542C01396FC93EE9312977D
:10332000ED01499159919E01240F351FE217F307D2
:1033300071F480819181840F951F029611969C9360
:103340008E938281938113969C938E931297E0E0E3
:10335000F0E0D80112968D919C911397009719F087
:10336000F8018C01F6CF8D919C9198012E5F3F4F13
:10337000820F931F209125053091260528173907C4
:1033800069F4309729F4109228051092270502C09D
:10339000138212821093260500932505DF91CF91A9
:1033A0001F910F910895A0E0B0E0E9EDF9E10C94D0
:1033B000041CEC01009721F4CB010E94A618B8C0B0
:1033C000FC01E60FF71F9C0122503109E217F307B9
:1033D00008F4ACC0D9010D911C911197061717077D
:1033E000B0F00530110508F49FC0C8010497861796
:1033F000970708F499C002501109061B170B019397
:1034000011936D937C93CF010E943B198DC05B019A
:10341000A01AB10A4C01800E911EA0912705B0910F
:10342000280540E050E0E12CF12C109709F44AC047
:10343000A815B905D1F56D907C901197630182E0D4
:10344000C80ED11CCA14DB0480F1A3014A195B0920
:103450006A0182E0C80ED11C1296BC901297139696
:10346000AC91B5E0CB16D10440F0B282A383518376
:103470004083D9016D937C930AC00E5F1F4FC30137
:10348000800F911FF90191838083EB2DFA2FE114B6
:10349000F10431F0D7011396FC93EE93129744C0D8
:1034A000F0932805E09327053FC08D919C911197DB
:1034B0004817590708F4AC017D0112960D90BC9194
:1034C000A02DB3CF809125059091260588159905EB
:1034D000E1F446175707C8F480910C0190910D0153
:1034E000009741F48DB79EB74091100150911101A2
:1034F000841B950BE817F907C8F4F0932605E093B1
:103500002505F901718360830FC0CB010E94A618C5
:103510007C01009759F0A801BE010E94A21ACE01B9
:103520000E943B19C70104C0CE0102C080E090E0B8
:10353000CDB7DEB7EEE00C94201C81E090E0F8946B
:103540000C94461CFB01DC0102C001900D9241501D
:103550005040D8F70895FB01DC018D91019080194E
:103560000110D9F3990B0895FB01DC0101900D9234
:103570000020E1F708950E94FD1A08F481E0089503
:10358000E89409C097FB3EF49095809570956195FD
:103590007F4F8F4F9F4F9923A9F0F92F96E9BB27B3
:1035A0009395F695879577956795B795F111F8CF2F
:1035B000FAF4BB0F11F460FF1BC06F5F7F4F8F4F9A
:1035C0009F4F16C0882311F096E911C0772321F090
:1035D0009EE8872F762F05C0662371F096E8862F28
:1035E00070E060E02AF09A95660F771F881FDAF77F
:1035F000880F9695879597F90895990F0008550FAC
:10360000AA0BE0E8FEEF16161706E807F907C0F068
:1036100012161306E407F50798F0621B730B840B70
:10362000950B39F40A2661F0232B242B252B21F44A
:1036300008950A2609F4A140A6958FEF811D811DEA
:1036400008950E94341B0C94A51B0E94971B38F010
:103650000E949E1B20F0952311F00C948E1B0C945D
:10366000941B11240C94D91B0E94B61B70F3959FD8
:10367000C1F3950F50E0551F629FF001729FBB2769
:10368000F00DB11D639FAA27F00DB11DAA1F649F05
:103690006627B00DA11D661F829F2227B00DA11DB8
:1036A000621F739FB00DA11D621F839FA00D611D3E
:1036B000221F749F3327A00D611D231F849F600D5F
:1036C000211D822F762F6A2F11249F5750409AF088
:1036D000F1F088234AF0EE0FFF1FBB1F661F771F14
:1036E000881F91505040A9F79E3F510580F00C94DF
:1036F0008E1B0C94D91B5F3FE4F3983ED4F3869560
:1037000077956795B795F795E7959F5FC1F7FE2B7E
:10371000880F911D9695879597F9089597F99F675A
:1037200080E870E060E008959FEF80EC0895002449
:103730000A941616170618060906089500240A9416
:1037400012161306140605060895092E0394000C9C
:1037500011F4882352F0BB0F40F4BF2B11F460FF2B
:1037600004C06F5F7F4F8F4F9F4F089557FD905854
:10377000440F551F59F05F3F71F04795880F97FB35
:10378000991F61F09F3F79F08795089512161306EF
:103790001406551FF2CF4695F1DF08C0161617061E
:1037A0001806991FF1CF8695710561050894089553
:1037B000E894BB2766277727CB0197F90895F999F5
:1037C000FECF92BD81BDF89A992780B50895262F26
:1037D000F999FECF1FBA92BD81BD20BD0FB6F894F6
:1037E000FA9AF99A0FBE019608950E94371CA59F78
:1037F000900DB49F900DA49F800D911D11240895EC
:103800002F923F924F925F926F927F928F929F92F0
:10381000AF92BF92CF92DF92EF92FF920F931F93DE
:10382000CF93DF93CDB7DEB7CA1BDB0B0FB6F8948F
:10383000DEBF0FBECDBF09942A88398848885F84CF
:103840006E847D848C849B84AA84B984C884DF8040
:10385000EE80FD800C811B81AA81B981CE0FD11D24
:103860000FB6F894DEBF0FBECDBFED010895A29F45
:10387000B001B39FC001A39F700D811D1124911D44
:10388000B29F700D811D1124911D0895F894FFCFF2
:10389000FCC9FA0F01D20017770277020000290550
:1038A00080002B565A5E00BC0077010000000048E3
:1038B0000218029A0BEC011002FC01ED010000005D
:1038C00000050C6E0B9D0B4C0CCE0BAC0BC00B4FC4
:1038D00070656E456E657267794D6F6E69746F7253
:1038E0002E6F726700656D6F6E54482043555354B8
:1038F0004F4D2046573A2056004C6F616465642056
:10390000454550524F4D20524620636F6E666967A1
:10391000203E004E6F20454550524F4D20636F6E44
:103920006669670052464D20537461727465640085
:103930004E6F64653A200020467265713A2000346B
:1039400033334D687A003836384D687A003931356E
:103950004D687A00204E6574776F726B3A2000498B
:103960006E74205349373230312E2E005349373090
:10397000323120537461727465642C2049443A20BA
:103980000053493730323120743A200053493730E0
:10399000323120683A2000534937303231204572A5
:1039A000726F72004E6F204453313842323000271C
:1039B0002B2B2B27207468656E205B456E74657217
:1039C0005D20666F7220524620636F6E66696720C5
:1039D0006D6F64650077616974696E672035732E59
:1039E0002E2E002B2B2B0D0A00456E746572696E0E
:1039F0006720636F6E666967206D6F64652E2E2E7B
:103A00000044454255472044495341424C454400F7
:103A10006E616E00696E66006F766600536176694E
:103A20006E672E2E2E00446F6E652E204E65772019
:103A3000636F6E66696720736176656420746F20BA
:083A4000454550524F4D0000B6
:00000001FF
