:100000000C9402040C9465150C943E150C942A046F
:100010000C942A040C942A040C94E4150C942A04DD
:100020000C942A040C942A040C942A040C942A0498
:100030000C942A040C942A040C942A040C942A0488
:100040000C94F4140C942A040C94B2150C948C1592
:100050000C942A040C942A040C942A040C942A0468
:100060000C94D5130C942A04524620706F77657255
:10007000203D20004453313842323020656E6162A9
:100080006C6564203D200070756C7365207065722E
:10009000696F64203D200070756C73657320656E18
:1000A00061626C6564203D2000204D487A002C2060
:1000B00042616E6420002C204E6F64652000477200
:1000C0006F75702000005EBCE2613FDD83C29C7EE4
:1000D00020A3FD1F41009D23BE46DB65F88C11AFB8
:1000E00032CA57E9744C6F616465642045455052CB
:1000F0004F4D20636F6E6669670053656E736F7254
:10010000206D6179206E6F742062652072656C6964
:1001100061626C6500200030002C207769746820D3
:100120006164647265737365732E2E2E00445331BF
:100130003842323020666F756E64203D2000656D58
:100140006F6E54482072657374617274696E6720B3
:10015000776974682064656661756C7420636F6E7E
:100160006669672E00526573657474696E672E2E1A
:100170002E000A00202868696464656E292E00201C
:100180006279746573002C20446174612073697A0C
:10019000653A2000205369676E61747572653A2074
:1001A000004E6F206461746120626C6F636B206627
:1001B0006F756E64202D20454550524F4D20617063
:1001C000706561727320746F20626520666F726D56
:1001D000617474656420746F204F454D20537461C1
:1001E0006E646172642062757420756E75736564E7
:1001F0002E000A002062797465732C206E6F7420C3
:10020000666F726D617474656420746F204F454D24
:10021000205374616E646172640053697A653A2098
:1002200000446F6E652E204E657720636F6E6669A1
:100230006720736176656420746F20454550524F86
:100240004D002000436F6E74696E75696E672E2EC7
:100250002E00456D6F6E54485F56322056004E6F2B
:1002600064652000206D730050756C7365733A20CF
:100270000047726F75702000436F6E74696E756908
:100280006E6720776974686F757420656E74657227
:10029000696E6720636F6E666967206D6F64652E97
:1002A0002E2E00456E746572696E672053657474F6
:1002B000696E6773206D6F64652E2E2E000000003E
:1002C00000240027002A0000000000250028002B41
:1002D0000000000008000201000003040700000005
:1002E00000000000000A417661696C61626C652063
:1002F000636F6D6D616E64733A0A20206C2020205C
:100300002020202020202D206C69737420746865C3
:100310002073657474696E67730A20207220202030
:100320002020202020202D20726573746F7265209C
:10033000736B657463682064656661756C74730AB9
:100340002020732020202020202020202D207361B9
:1003500076652073657474696E677320746F2045C9
:100360004550524F4D0A202076202020202020206A
:1003700020202D2073686F77206669726D77617217
:10038000652076657273696F6E0A202078202020C0
:100390002020202020202D20657869742C206C6F6F
:1003A000636B20616E6420636F6E74696E75650A9D
:1003B00020203F2020202020202020202D20736876
:1003C0006F77207468697320746578742061676141
:1003D000696E0A0A2020773C783E202020202020C9
:1003E0002D207475726E2052464D20576972656CCF
:1003F000657373202F2053657269616C206461748A
:100400006120626F7468206F66663A2078203D2014
:10041000302C20776972656C657373206F6E6C7910
:100420003A20783D312C2073657269616C206F6EC3
:100430006C793A20783D32206F7220626F74683A8E
:100440002078203D20330A2020703C6E6E3E202014
:100450002020202D207365742074686520722E661C
:100460002E20706F7765722E206E6E202D20616EAB
:1004700020696E74656765722030202D203331202D
:10048000726570726573656E74696E67202D3138A0
:100490002064426D20746F202B31332064426D2E16
:1004A0002044656661756C743A20323520282B37FC
:1004B0002064426D290A2020673C6E6E6E3E20202B
:1004C00020202D20736574204E6574776F726B2029
:1004D00047726F757020206E6E6E202D20616E2029
:1004E000696E746567657220284F454D20646566A6
:1004F00061756C74203D20323130290A20206E3C19
:100500006E6E3E20202020202D20736574206E6F9B
:100510006465204944206E3D20616E20696E7465DB
:1005200067657220287374616E64617264206E6FF7
:100530006465206964732061726520312E2E363027
:10054000290A0A20206D3C783E203C79793E202DF6
:10055000206D657465722070756C736520636F75AE
:100560006E74696E673A0A20202020202020202007
:1005700020202020202078203D203020666F72200F
:100580004F46462C2078203D203120666F72204F48
:100590004E2C203C79793E203D20616E20696E749E
:1005A0006567657220666F72207468652070756C6F
:1005B0007365206D696E696D756D20706572696F08
:1005C0006420696E206D732E202879206973206E57
:1005D0006F74206E65656465642C206F7220696796
:1005E0006E6F726564207768656E2078203D2030DC
:1005F000290A20207430203C793E202020202D2004
:100600007475726E2065787465726E616C207465A5
:100610006D7065726174757265206D656173757258
:10062000656D656E74206F6E206F72206F66663A1E
:100630000A2020202020202020202020202D20796A
:10064000203D203020666F72204F46462C207920B6
:100650003D203120666F72204F4E0A2020743C7876
:100660003E203C79793E203C79793E203C79793EA8
:10067000203C79793E203C79793E203C79793E20B6
:100680003C79793E203C79793E0A202020202020A8
:100690002020202020202D206368616E6765206166
:1006A0006E2065787465726E616C2074656D70651E
:1006B0007261747572652073656E736F7227732033
:1006C00061646472657373206F7220706F736974F4
:1006D000696F6E3A0A202020202020202020202030
:1006E000202D2078203D20612073696E676C652085
:1006F0006E756D6572616C3A2074686520706F73F9
:100700006974696F6E206F66207468652073656E0A
:10071000736F7220696E20746865206C6973742031
:1007200028312D6261736564290A20202020202051
:100730002020202020202D207979203D203820687D
:10074000657861646563696D616C20627974657355
:1007500020726570726573656E74696E6720746867
:10076000652073656E736F722773206164647265B0
:1007700073730A20202020202020202020202020E9
:100780002020652E672E2020323820383120343347
:100790002033312030372030302030302044390AA7
:1007A0002020202020202020202020202020204E1B
:1007B0002E422E2053656E736F72732043414E4E4E
:1007C0004F542062652061646465642E0A000A004B
:1007D000000000002300260029000404040404048F
:1007E00004040202020202020303030303030102E0
:1007F00004081020408001020408102001020408AF
:100800001020F51511241FBECFEFD8E0DEBFCDBFFD
:1008100024E0A6E8B2E001C01D92A43CB207E1F7D3
:1008200012E0A0E0B1E0E2E0F8E402C005900D9231
:10083000A638B107D9F714E0C2E0D4E004C021978C
:10084000FE010E94DA22C130D107C9F70E942C179D
:100850000C94FF230C9400008EBD0DB407FEFDCF59
:100860008EB508952A980E942C0480E00E942C04E2
:100870002A9A0895CF93C62F2A9880680E942C0444
:100880008C2F0E942C042A9ACF9108952091210345
:10089000260F3327331F21323105ECF420918E03CC
:1008A000FC0190E080E0243069F082E00895A0919E
:1008B00021032191AC0141505D4FA40FB52FB11D13
:1008C0002C930196861798F380912103680F60930B
:1008D000210380E0089581E0089508950895089522
:1008E000E091470380914603E81730F4F0E0E85BBD
:1008F000FC4F808190E008958FEF9FEF08959091D5
:100900004703809146032FEF3FEF981748F4E92FF4
:10091000F0E0E85BFC4F208130E09F5F909347035D
:10092000C90108958091460390914703891B990B53
:100930000895CF92DF92EF92FF920F931F93CF9380
:10094000DF937C01CB018A0120919403222389F05B
:10095000EB016B01C40ED51ECC15DD0569F0699164
:10096000D701ED91FC910190F081E02DC70109952F
:10097000F3CF642F0E944604C801DF91CF911F91ED
:100980000F91FF90EF90DF90CF900895CF93DF937A
:100990001F92CDB7DEB76983209194032223F9F02B
:1009A0002091B703203258F021E030E0FC0133837E
:1009B000228390E080E00F90DF91CF9108958091A5
:1009C0009503E82FF0E0EA56FC4F998190838F5F02
:1009D000809395038093B70381E090E0ECCF61E0D2
:1009E000CE0101960E944604F7CF833081F028F4AF
:1009F000813099F08230A9F008958730A9F08830CD
:100A0000C9F08430B1F4809180008F7D03C0809163
:100A100080008F7780938000089584B58F7784BDA0
:100A2000089584B58F7DFBCF8091B0008F77809340
:100A3000B00008958091B0008F7DF9CFCF93DF9300
:100A4000282F30E0F901EF52FD4F8491F901E25176
:100A5000F84FD491F901E652F84FC491CC23A1F09C
:100A600081110E94F504EC2FF0E0EE0FFF1FE05320
:100A7000F84FA591B491EC91ED2381E090E009F459
:100A800080E0DF91CF91089580E090E0FACF1F934E
:100A9000CF93DF93282F30E0F901EF52FD4F84917F
:100AA000F901E251F84FD491F901E652F84FC4919F
:100AB000CC23A9F0162F81110E94F504EC2FF0E051
:100AC000EE0FFF1FE953FD4FA591B4918FB7F89436
:100AD000EC91111108C0D095DE23DC938FBFDF911C
:100AE000CF911F910895DE2BF8CF10928E0381E0F5
:100AF00080938D031092680361E082E10E944705B4
:100B000061E083E10E944705E9EBF0E080818E7FA0
:100B1000808380818D7F808388E48093B80085E422
:100B20008093BC000895CF93DF9391E09093FE02F1
:100B30008823B9F0C091B800D091BA008091BC0070
:100B40008A7B8093BC0060E082E10E94470560E000
:100B500083E10E9447050E947505D093BA00C093B7
:100B6000B800DF91CF910895CF93DF9390E0FC011F
:100B7000E251F84F24918652984FFC0184918823CA
:100B8000C9F090E0880F991FFC01E354FD4FA59137
:100B9000B491FC01E953FD4FC591D49161110DC091
:100BA0009FB7F8948C91209582238C938881282379
:100BB00028839FBFDF91CF910895623051F49FB792
:100BC000F8943C91822F809583238C93E8812E2B7F
:100BD000EFCF8FB7F894EC912E2B2C938FBFEACFE9
:100BE0003FB7F8948091FA029091FB02A091FC0229
:100BF000B091FD0226B5A89B05C02F3F19F00196C4
:100C0000A11DB11D3FBFBA2FA92F982F8827BC0166
:100C1000CD01620F711D811D911D42E0660F771F8E
:100C2000881F991F4A95D1F708958F929F92AF928E
:100C3000BF92CF92DF92EF92FF920F931F93CF93C9
:100C4000DF93D091B703D13208F0D7C0182FC091ED
:100C5000B6030E94F0056B017C0180918E03811127
:100C60006BC082E080938E0310938D038FEF80938F
:100C70008C0310928B03D0938A03A6E9B3E0EAE6D3
:100C8000F3E080E0D81391C010926903809169036A
:100C9000CC0FC82BC093690380916803813009F0A1
:100CA00088C0109268030E94F0056B017C0180915E
:100CB00069038093BB008091900390919103A09170
:100CC0009203B0919303892B8A2B8B2BA1F00E9466
:100CD000F0050091900310919103209192033091BF
:100CE00093036C197D098E099F09061717072807BA
:100CF000390708F442C08091BC0083FDD8CF85EC51
:100D00008093BC000E94F0056B017C0180918E03F2
:100D1000823009F450C080918C038F3F09F46FC07A
:100D200080918C03803209F46CC080918C038033F5
:100D300009F469C084E026C08091900390919103EA
:100D4000A0919203B0919303892B8A2B8B2B09F4EA
:100D500084CF0E94F0058090900390909103A09022
:100D60009203B09093036C197D098E099F09861632
:100D70009706A806B90608F070CF80918F030E94ED
:100D8000930585E0109295031092B7031092940397
:100D9000DF91CF911F910F91FF90EF90DF90CF9057
:100DA000BF90AF909F908F9008959D9191938F5F8A
:100DB00069CF85EEA5CF8091900390919103A0918A
:100DC0009203B0919303892B8A2B8B2B09F49ECF2E
:100DD0000E94F005009190031091910320919203DD
:100DE000309193036C197D098E099F090617170727
:100DF0002807390708F08ACFC0CF81E0C3CF80E051
:100E0000C1CF82E0BFCF83E0BDCF0F931F93CF93BD
:100E1000DF93EC018B0181E08093940380E4809365
:100E2000B603109295031092B703688189EB93E0A3
:100E30000E94C6040130110529F0698189EB93E015
:100E40000E94C60481E0DF91CF911F910F910C9415
:100E500015068F929F92AF92BF92CF92DF92EF9240
:100E6000FF926B017C010E94F0054B015C01C114F3
:100E7000D104E104F104B9F00E94F0056819790980
:100E80008A099B09683E73408105910580F321E042
:100E9000C21AD108E108F10888EE880E83E0981E96
:100EA000A11CB11CE4CFFF90EF90DF90CF90BF90DA
:100EB000AF909F908F9008952FB7F8946091F602AD
:100EC0007091F7028091F8029091F9022FBF089576
:100ED000CF92DF92EF92FF92CF93DF93D091B8033E
:100EE000D81701F1C82F81E00E943204837E682F59
:100EF0006C2B81E00E943A040E945C076B017C012C
:100F0000D11117C087E20E94320487FD12C00E94EF
:100F10005C076C197D098E099F096436710581058E
:100F2000910580F3DF91CF91FF90EF90DF90CF900C
:100F30000895C093B803F6CF0F931F93CF93DF9319
:100F4000EC0184E00E9468072097F9F088818823EB
:100F5000E1F02A988EEB0E942C048E01005F1F4F57
:100F600089910E942C04C017D107D1F72A9AC1E0B9
:100F70008DE30E9432048E7F682F6C2B8DE3DF910E
:100F8000CF911F910F910C943A04C0E0F1CF0895D6
:100F9000AF92BF92CF92DF92EF92FF920F931F9387
:100FA000CF93DF936C017B018B01040F151FEB01C5
:100FB0005E01AE18BF08C017D10759F06991D6017C
:100FC000ED91FC910190F081E02DC6010995892BEE
:100FD00079F7C501DF91CF911F910F91FF90EF90AD
:100FE000DF90CF90BF90AF900895FC01538D448D5A
:100FF000252F30E0842F90E0821B930B541710F0C4
:10100000CF96089501970895FC01918D828D9817D0
:1010100061F0A28DAE0FBF2FB11D5D968C91928DA8
:101020009F5F9F73928F90E008958FEF9FEF0895D9
:101030008F929F92AF92BF92EF92FF920F931F9366
:10104000CF93DF937B018C01D0E0C0E00E945C076E
:101050006093CD037093CE038093CF039093D0031E
:1010600085EC93E00E94040897FF27C00E945C076C
:101070008090CD039090CE03A090CF03B090D0038A
:10108000681979098A099B098090C9039090CA035D
:10109000A090CB03B090CC03681579058A059B0519
:1010A000F8F2CE01DF91CF911F910F91FF90EF9059
:1010B000BF90AF909F908F900895F80181938F011A
:1010C0002196EC16FD0611F6ECCFFC01918D828D78
:1010D000981731F0828DE80FF11D858D90E008950D
:1010E0008FEF9FEF08950F931F930E945C0760930B
:1010F000CD037093CE038093CF039093D00385EC00
:1011000093E00E94650897FF1DC00E945C07009154
:10111000CD031091CE032091CF033091D003601BFB
:10112000710B820B930B0091C9031091CA0320919C
:10113000CB033091CC036017710782079307F8F255
:101140008FEF9FEF1F910F910895CF92DF92EF9253
:10115000FF92CF930E947308FC0197FD4EC08D3221
:10116000910521F0C0970A9708F040C0C12CD12CFE
:101170007601C0E0E130F105D1F0ED32F105D9F1B1
:10118000CF01C0970A9798F4AAE0B0E0A7019601B2
:101190000E9476226F01FF0FEE08FF08C60ED71ED1
:1011A000E81EF91E80E3C81AD108E108F10885ECB1
:1011B00093E00E9404080E947308FC01C0970A97FC
:1011C000C8F2E130F105B1F2CC2341F0F094E094A3
:1011D000D094C094C11CD11CE11CF11CC701B60104
:1011E000CF91FF90EF90DF90CF90089585EC93E042
:1011F0000E940408AFCFC1E0DACFC12CD12C760118
:10120000EDCFFC01918D228D892F90E0805C9F4F66
:10121000821B91098F739927089585EC93E00E94B2
:10122000010921E0892B09F420E0822F089580E054
:1012300090E0892B29F00E940D0981110C94000087
:101240000895FC01A48DA80FB92FB11DA35ABF4F5B
:101250002C91848D90E001968F739927848FA689B5
:10126000B7892C93A089B1898C91837080648C9309
:10127000938D848D981306C00288F389E02D8081B8
:101280008F7D80830895EF92FF920F931F93CF93EA
:10129000DF93EC0181E0888F9B8D8C8D98131AC0B1
:1012A000E889F989808185FF15C09FB7F894EE8998
:1012B000FF896083E889F9898081837080648083F5
:1012C0009FBF81E090E0DF91CF911F910F91FF9040
:1012D000EF900895F62E0B8D10E00F5F1F4F0F73E8
:1012E0001127E02E8C8D8E110CC00FB607FCFACFA3
:1012F000E889F989808185FFF5CFCE010E94210917
:10130000F1CFEB8DEC0FFD2FF11DE35AFF4FF08273
:101310009FB7F8940B8FEA89FB8980818062CFCFD9
:101320000F931F93CF93DF938C01D0E0C0E0F801BF
:10133000EC0FFD1F6491662341F085EC93E00E9461
:101340004309892B11F02196F2CFCE01DF91CF9185
:101350001F910F910895682F85EC93E00C94430939
:101360001F93CF93DF93C5EED2E0FE0114911123BA
:1013700051F01A3019F48DE00E94AB09812F0E94C0
:10138000AB092196F2CFDF91CF911F910895CF93B2
:10139000DF93EC01888D8823B9F0AA89BB89E8899D
:1013A000F9898C9185FD03C0808186FD0DC00FB643
:1013B00007FCF7CF8C9185FFF2CF808185FFEDCFC1
:1013C000CE010E942109E9CFDF91CF910895DC0180
:1013D00080E0615090F09D919827E92FEF70F0E048
:1013E000EB53FF4F2491E92FE295EF70F0E0EB52C1
:1013F000FF4FE491822F8E27ECCF0895DC012C91D2
:101400001196ED91FC91F8948181822B81839281D8
:10141000322F30959323928387E090E00197F1F784
:1014200081818323818383E290E00197F1F79081AA
:101430007894EFECF0E03197F1F7922381E009F432
:1014400080E00895FC0190810180F281E02D292F38
:10145000209560FF14C0F894828182238283818169
:10146000892B8183A3E2B0E01197F1F78281982B59
:101470009283789487ED90E00197F1F70895F894BE
:101480008281822382838181892B8183AFEFB0E0C7
:101490001197F1F78281982B928378948FE090E0F6
:1014A000EBCFDF92EF92FF920F931F93CF93DF93D7
:1014B000EC01D62EE42E08E010E0FF24F39461E066
:1014C0008D2D8F2109F460E0CE010E94220AFF0CCD
:1014D00001501109A1F7E11010C0F894E981FA81D7
:1014E00091818881809589238183E981FA81928124
:1014F00088818095892382837894DF91CF911F9191
:101500000F91FF90EF90DF900895EF92FF920F936D
:101510001F93CF93DF938C017B0140E065E50E9430
:10152000510AE70188E0E80EF11C699140E0C8012A
:101530000E94510ACE15DF05C1F7DF91CF911F91AF
:101540000F91FF90EF900895FC0190810180F2814E
:10155000E02DF8948181292F20958223818378942E
:101560003DE743E050E0315029F1DA011197F1F7FE
:1015700080818923C1F3F8948281822382838181CF
:10158000892B81837894ABE7B7E01197F1F7F89452
:10159000818182238183A3E1B1E01197F1F78081FA
:1015A000982381E009F080E07894E3E6F6E0319753
:1015B000F1F7089580E008956F927F928F929F9245
:1015C000AF92BF92CF92DF92EF92FF920F931F9351
:1015D000CF93DF938C01EB01809177049091780495
:1015E0000E94A40A882309F43FC0B80180917704BF
:1015F000909178040E94850A40E06EEB8091770418
:10160000909178040E94510A7E016E0189E0C80E13
:10161000D11C8E01A0907704B090780488E0882EC9
:10162000912C712C66246394C5010E94FE098111DE
:101630007628660CE1E08E1A9108B1F7F8017192F4
:101640008F01CE16DF0631F78091770490917804F0
:101650000E94A40A813041F4F70181917F01811138
:1016600005C0E017F107C1F790E008C068E0CE01BF
:101670000E94E70991E028852813F6CF892FDF9192
:10168000CF911F910F91FF90EF90DF90CF90BF907F
:10169000AF909F908F907F906F9008958F929F92C0
:1016A000AF92BF92CF92DF92EF92FF920F931F9370
:1016B000CF93DF93CDB7DEB729970FB6F894DEBF8F
:1016C0000FBECDBFBE016F5F7F4F84EA94E00E94E2
:1016D000DC0A811105C060E070E08EEF92EC4AC038
:1016E0002A8160E070E0CB0127FF04C060E070E079
:1016F00088EF9FEF4091A404C9804B3309F04DC09F
:101700003D8137FF4AC0C0FCE6CFD12CF12CE12C43
:10171000E3E0CC0CDD1CEE1CFF1CEA95D1F7460182
:10172000570130EE832237E09322AA24BB24C22E35
:10173000D12CF12CE12CFBE0CC0CDD1CEE1CFF1CB1
:10174000FA95D1F7C828D928EA28FB286C297D29E1
:101750008E299F29613854EE75075FEF850795073D
:101760000CF4B9CF0E94432120E030E040E05CE37C
:101770000E94A22129960FB6F894DEBF0FBECDBFFE
:10178000DF91CF911F910F91FF90EF90DF90CF905D
:10179000BF90AF909F908F900895022F10E0102F70
:1017A0000027110F110F110F58E0C59E6001112481
:1017B0000C291D29012E000C220B330B602B712BE1
:1017C000822B932B403131F64885442319F28B014B
:1017D0009C0183E0000F111F221F331F8A95D1F750
:1017E0000078277033270052110921093109642F2D
:1017F00070E08F81AB01481B5109CA019695982F63
:101800008827979587950E949022072E000C880BB9
:10181000990B600F711F821F931F9CCF0F931F9313
:10182000CF93DF93CDB7DEB729970FB6F894DEBF1D
:101830000FBECDBFFC012081203139F18C01BE01EA
:101840006F5F7F4F0E94DC0A882371F09D81F80151
:1018500080818B3311F497FD18C08AE09F3329F003
:1018600078F489E09F3109F080E029960FB6F8946A
:10187000DEBF0FBECDBFDF91CF911F910F910895B5
:101880008BE09F3591F39F3779F78CE0EECF8F9205
:101890009F92AF92BF92CF92DF92EF92FF92CF933F
:1018A000DF9300D000D01F92CDB7DEB780917704D0
:1018B000909178040E94A40A40E06CEC8091770437
:1018C000909178040E94510A40916E0464E48091E2
:1018D0007704909178040E94510A0E945C076B0182
:1018E0007C018091720481111EC081E08983CA82CB
:1018F000DB82EC82FD8229813A814B815C816D81A2
:1019000070E080E090E00F900F900F900F900F909C
:10191000DF91CF91FF90EF90DF90CF90BF90AF908D
:101920009F908F900895809173048823C1F08091D7
:101930006E04811114C080917704909178040E9404
:10194000FE09813091F20E945C076C197D098E09B5
:101950009F096E3E72408105910568F3C6CFE09104
:101960007104E9508EEE92E0E33038F4F0E0EE0FCF
:10197000FF1FE85FFE4F808191814C01B12CA12CAB
:1019800080916F04882329F060E0809170040E94A8
:101990004705C501B4010E94290780916F0488237F
:1019A00009F4A3CF61E0809170040E9447059DCFA8
:1019B00083FF04C098E2892787FD16C090916000DC
:1019C00098709064892B909160009093D10294B7A5
:1019D000977F94BFF8949091600098619093600015
:1019E00080936000789408958091D102F0CFCF92D7
:1019F000DF92EF92FF921F93CF93DF936C01EC0184
:101A000038E0E32EF12CC031D10508F43FC0CE01FF
:101A100010E08032910530F01F5F193019F0969573
:101A20008795F7CF1092D202812F0E94D80C909107
:101A30007A0080917A008F7780937A0083B7817FD4
:101A4000846083BFF89483B7816083BF85B7806665
:101A500085BF85B78F79806485BF7894889583B773
:101A60008E7F83BF90937A008FEF0E94D80CC701BE
:101A700002C0880F991F1A95E2F7C81BD90B209155
:101A8000D202222311F1C81BD90BBDCF81E04091B6
:101A9000F6025091F7026091F8027091F902CC1AA7
:101AA000DD0A4C0D5D1D611D711D4093F6025093C2
:101AB000F7026093F8027093F902DF91CF911F91C2
:101AC000FF90EF90DF90CF90089580E0E0CF90E01E
:101AD00080E0089581E08093F4028091EC0290917F
:101AE000ED02A091EE02B091EF020196A11DB11D91
:101AF0008093EC029093ED02A093EE02B093EF027C
:101B000008951092E8021092E9021092EA021092EF
:101B1000EB021092EC021092ED021092EE02109283
:101B2000EF0280ED92E0A0E0B0E08093F0029093AD
:101B3000F102A093F202B093F3021092F4028AE64B
:101B40009DE09093070180930601E9E6F0E0808133
:101B50008C608083E99A0895BF92CF92DF92EF92D2
:101B6000FF920F931F93CF93DF932AE7E22EF12C7E
:101B7000F701B0800BE710E0F801C080CCE7D0E0BF
:101B8000D8800E94F70CF701B082F801C082D88299
:101B9000DF91CF911F910F91FF90EF90DF90CF9049
:101BA000BF900895EF92FF920F931F93CF93DF930F
:101BB0007C018C01C3E0D0E0CE010E946022F801DC
:101BC00081938F012196C730D105B1F7C701DF910D
:101BD000CF911F910F91FF90EF9008950F931F9356
:101BE000CF93DF9300D000D0CDB7DEB78C0190E06B
:101BF00080E00E9460228F34D1F481E090E00E9466
:101C000060228534A1F482E090E00E9460228D344D
:101C100071F481E00115110559F0CE0101960E9481
:101C2000D20D81E02B813C812017310709F080E043
:101C30000F900F900F900F90DF91CF911F910F9108
:101C40000895FC0101900020E9F73197AF01481B8E
:101C5000590BBC0185EC93E00C94C80782E391E03A
:101C60000C94210ECF93DF930E949009EC010E9407
:101C70002E0E8C0F9D1FDF91CF910895CF93DF9390
:101C8000D0E0C0E0009719F00E94210EEC010E9404
:101C90002E0E8C0F9D1FDF91CF9108958F929F92F2
:101CA000AF92BF920F931F93CF93DF93CDB7DEB761
:101CB000A1970FB6F894DEBF0FBECDBF19A2423078
:101CC00008F44AE08E010F5D1F4F842E912CB12C39
:101CD000A12CA50194010E94A422E62FB901CA01FA
:101CE000EA30F4F4E05DD801EE938D01232B242B30
:101CF000252B79F790E080E0109719F0CD010E9434
:101D0000210EA1960FB6F894DEBF0FBECDBFDF91B6
:101D1000CF911F910F91BF90AF909F908F9008959A
:101D2000E95CE1CF0C94210ECF92DF92EF92FF920B
:101D3000CF93DF936C01990FEE08FF08F7FE17C0F1
:101D40008DE20E94AB09EC0166277727CB016C1965
:101D50007D098E099F094AE00E944E0E8C0F9D1F3F
:101D6000DF91CF91FF90EF90DF90CF9008954AE000
:101D7000C701B601DF91CF91FF90EF90DF90CF9038
:101D80000C944E0ECF93DF930E94940EEC010E94B0
:101D90002E0E8C0F9D1FDF91CF9108954F925F9271
:101DA0006F927F928F929F92AF92BF92CF92DF926B
:101DB000EF92FF920F931F93CF936B017C01742ED0
:101DC000AC019B010E94FA23882399F085E391E0FE
:101DD000CF911F910F91FF90EF90DF90CF90BF9028
:101DE000AF909F908F907F906F905F904F900C94EA
:101DF000210E46015701E894B7F82FEF3FEF4FE768
:101E00005FE7C501B4010E94FA2381110DC02FEFD5
:101E10003FEF4FE75FE7C501B4010E943C21181670
:101E20001CF489E391E0D4CF2FEF3FEF4FE75FE45D
:101E3000C701B6010E94F52318161CF48DE391E04A
:101E4000C7CF2FEF3FEF4FE75FECC701B6010E940E
:101E50003C2187FDF3CF20E030E0A901C701B601A6
:101E60000E943C2110E000E087FF08C08DE20E9444
:101E7000AB098C01F7FAF094F7F8F094C0E060E059
:101E800070E080E09FE37C1641F020E030E040E22B
:101E900051E40E944D23CF5FF6CFA70196010E9427
:101EA000E1222B013C010E94C6234B015C014AE068
:101EB0000E944E0E7C01E00EF11ECC23B1F1C50153
:101EC000B4010E9441219B01AC01C301B2010E94F7
:101ED000E0224B015C018EE20E94AB09E80EF91E84
:101EE000C15018F120E030E040E251E4C501B401F6
:101EF0000E94A2212B013C010E94C6234B01B12C60
:101F0000A12C4AE0C501B4010E944E0EE80EF91E54
:101F1000C501B4010E9441219B01AC01C301B20182
:101F20000E94E0224B015C01DBCFC701CF911F91E2
:101F30000F91FF90EF90DF90CF90BF90AF909F9068
:101F40008F907F906F905F904F900895CF92DF9227
:101F5000EF92FF920F931F93CF93DF938C017B013E
:101F6000D0E0C0E0CE15DF056CF56801CC0EDD1EBB
:101F7000C6010E946022803118F480E30E94AB0900
:101F80002196C6010E946022682F70E090E080E0F8
:101F900040E10E944E0E86E192E00E94920ECE0138
:101FA00087709927892B21F486E192E00E94920E96
:101FB000CE018F709927892BA9F68EEC97E00E94AD
:101FC0009009D0CFDF91CF911F910F91FF90EF90AB
:101FD000DF90CF9008954F925F926F927F928F9291
:101FE0009F92AF92BF92EF92FF920F931F93CF9366
:101FF000DF937C018B010E94F0054B015C01809115
:102000008E03811165C0C02F81E080938E03809381
:102010008D039FEF90938C0310928B03900F9093FE
:102020008A038093690380916903806880936903C0
:1020300080916803813009F091C0109268030E947A
:10204000F0054B015C01809169038093BB00809196
:10205000900390919103A0919203B0919303892BE7
:102060008A2B8B2BA1F00E94F0054090900350909A
:1020700091036090920370909303681979098A091B
:102080009B09461657066806790608F442C08091F7
:10209000BC0083FDD8CF85EC8093BC000E94F00586
:1020A0004B015C0180918E03813009F459C080910D
:1020B0008B038C1710F4C0918B03AAE6B3E0E8E41D
:1020C000F3E080E08C1751F19D9191938F5FFACFEF
:1020D0008091900390919103A0919203B09193030A
:1020E000892B8A2B8B2B09F48ACF0E94F005409014
:1020F000900350909103609092037090930368193D
:1021000079098A099B09461657066806790608F078
:1021100076CF80918F030E949305C0E01092470311
:10212000C0934603E7010E0D1F1D89EB93E00E944B
:102130007F048993C017D107C1F781E090E0DF9158
:10214000CF911F910F91FF90EF90BF90AF909F9014
:102150008F907F906F905F904F90089585EE9CCF09
:102160008091900390919103A0919203B091930379
:10217000892B8A2B8B2B09F495CF0E94F005409078
:1021800090035090910360909203709093036819AC
:1021900079098A099B09461657066806790608F0E8
:1021A00081CFB7CFFF920F931F93CF93DF93CDB71C
:1021B000DEB728970FB6F894DEBF0FBECDBF85EE11
:1021C000888761E070E0CE0108960E94050762E012
:1021D00070E0CE0101960E94EB0F29813A813227EF
:1021E00023273227A4EDB0E30E9481228C010855F9
:1021F000124080EE8F8361E070E0CE0107960E946E
:10220000050762E070E0CE0101960E94EB0F298184
:102210003A81322723273227A4EAB4E40E9481229C
:10222000BC016D547241F62E7A836983072E000C2F
:10223000880B990B0E94432126E636E646EE5FE3C3
:102240000E94A22120E030E048E455E40E94E1220F
:102250000E94BF237C836B831E830D832F2D3A81C5
:10226000462F5C81602F7E8180E090E028960FB63B
:10227000F894DEBF0FBECDBFDF91CF911F910F91BC
:10228000FF900895BF92CF92DF92EF92FF920F934B
:102290001F93CF93DF93EC01B62EC72E8D8581114E
:1022A00005C0CE010E94A40A81110EC01B861D86A6
:1022B0001C8680E0DF91CF911F910F91FF90EF90EE
:1022C000DF90CF90BF90089540E060EFCE010E9474
:1022D000510A01E0E12CD12C11E0CE010E94FE094F
:1022E000F82ECE010E94FE0991E0F91218C081304B
:1022F00099F51134D8F2DB86D11002C081E08D87C8
:102300008B81882399F22396EB2DFC2DCF01089623
:1023100029912193E817F907D9F781E0CBCFEE2D6A
:10232000F0E0F8120FC08B851817A0F4DE01AE0F95
:10233000BF1F13968C91802379F4F12C193008F487
:102340001C87D12EEC0FFD1F8381902F9095892340
:1023500083830AC08113F1CFFE01EE0DF11D83814D
:10236000802B8383FF24F3946F2DCE010E94220AD9
:102370001F5F000F11F4E39401E087E08E1508F071
:10238000ACCFB7CFEF92FF920F931F93CF93DF9312
:10239000CDB7DEB729970FB6F894DEBF0FBECDBF1D
:1023A0008C01FC018081FF24F394803109F475C015
:1023B000BE016F5F7F4FC8010E94DC0AF82E8823A0
:1023C00009F46BC08D81F80190819B3311F487FD76
:1023D00064C08F3509F461C08FE58D8380917704E7
:1023E000909178040E94A40AB8018091770490919A
:1023F00078040E94850A40E06EE480917704909111
:1024000078040E94510A40E06B818091770490919A
:1024100078040E94510A40E06C8180917704909189
:1024200078040E94510AF8018081803141F040E037
:102430006D8180917704909178040E94510AE09018
:1024400074048091770490917804EE2009F47FC0A1
:102450000E94A40A882309F1B80180917704909121
:1024600078040E94850A40916E0468E480917704A4
:10247000909178040E94510A80916E0481114DC0A0
:1024800064E170E080E090E00E9429078091770489
:10249000909178040E94A40AFE2C8BE08093710432
:1024A00080917504823008F455C0E0917704F09172
:1024B0007804138615861486128611861086178274
:1024C000168215821482138210E080917504181709
:1024D00008F040C0809171048C30E1F1BE016F5F63
:1024E0007F4F80917704909178040E944211882355
:1024F00091F067E0CE0101960E94E7099885891363
:102500000AC0CE0101960E940E0C9091710498179A
:1025100010F4809371041F5FD8CF80916F048823DB
:1025200029F060E0809170040E94470564E170E04A
:1025300080E090E00E94290780916F04882309F4CD
:10254000A5CF61E0809170040E9447059FCF0E9453
:10255000A40AA3CF8F2D29960FB6F894DEBF0FBE25
:10256000CDBFDF91CF911F910F91FF90EF90089514
:1025700080919D048F7380939A049091DA02209148
:10258000DB02211192C0992309F493C08F5F8093DD
:102590009A048EEB90E00E94900960919C0470E098
:1025A00090E080E04AE00E944E0E86EB90E00E94B0
:1025B000900960919A0470E090E080E04AE00E9407
:1025C0004E0E8EEA90E00E94900980919B048B321F
:1025D00009F452C0813309F454C0863509F456C059
:1025E0008B3509F058C060E070EC84E694E442E07A
:1025F0000E94CE0E89EA90E00E94320E87E990E0B8
:102600000E9490098091A00490E00E94C20E87E889
:1026100090E00E9490098091A1049091A2040E94F0
:10262000940E83E691E00E943E0E84E790E00E94C3
:1026300090098091A30490E00E94C20E80919E04B4
:1026400080FF2DC081E491E00E943E0E80919E04A7
:1026500081FF28C08EE491E00E943E0E88E690E063
:102660000E94900980919F048251990B0E94940EC0
:1026700087E691E00C943E0E60E070E888ED93E40C
:10268000B6CF63EC75EF88ED93E4B1CF60E070E016
:1026900089E594E4ACCF60E070E0CB01A8CF87E49B
:1026A00091E0D2CF88E591E0D7CF911172CF8E5FC4
:1026B0006ECF8D5F6CCF85ED8093BC0080919003D1
:1026C00090919103A0919203B09193030796A11D5D
:1026D000B11D23E0B695A795979587952A95D1F7D3
:1026E0002091BC0024FD03C010928E0308954091F8
:1026F0009003509191036091920370919303452B45
:10270000462B472B69F30097A105B10541F02AE25A
:102710002A95F1F700C00197A109B109E1CF809195
:102720008F030C949305FF920F931F93CF93DF9326
:10273000EC01F62E08811981C8010E946022F8166A
:1027400021F06F2DC8010E946822CE01DF91CF9148
:102750001F910F91FF900895CF92DF92EF92FF9219
:102760000F931F93CF93DF9300D0CDB7DEB76C01EB
:102770007C0103E010E01A830983F70161917F0176
:10278000CE0101960E9493130F5F1F4F0730110572
:1027900091F7C6010F900F90DF91CF911F910F918C
:1027A000FF90EF90DF90CF9008951F920F920FB699
:1027B0000F9211242F933F934F935F936F937F93C7
:1027C0008F939F93AF93BF93EF93FF938091B90043
:1027D000887F803609F44AC0F0F5883209F4A7C032
:1027E00018F5803109F49BC0B8F4882309F4F9C0C6
:1027F000883009F494C0FF91EF91BF91AF919F9100
:102800008F917F916F915F914F913F912F910F9099
:102810000FBE0F901F901895883109F488C0803240
:1028200051F780938C0314C0803409F49DC040F4A8
:102830008033B9F38833F9F680938C0385ECB0C00C
:10284000803509F485C0883509F496C0883499F636
:102850000E945B13D0CF883909F48CC038F58837D3
:1028600029F050F4883611F0803729F683E0809300
:102870008E031092450357C0883809F47BC0803915
:1028800019F0803809F0B7CF80914503803208F005
:1028900071C0E091450381E08E0F809345038091E4
:1028A000BB00F0E0EB5DFC4F80833DC0803B39F026
:1028B000E0F4803A09F479C0883A09F09CCF84E0CA
:1028C00080938E031092220310922103E0911F0344
:1028D000F091200309958091210381110FC081E0BF
:1028E000809321031092FF0209C0803C09F4A6CF17
:1028F000883C09F4A3CF883B09F07DCFE091220307
:1029000081E08E0F80932203F0E0E150FD4F808143
:102910008093BB00909122038091210329C0809174
:1029200069038093BB0085EC8093BC0064CF9091D9
:102930008B0380918A03981758F5E0918B0381E00F
:102940008E0F80938B03F0E0E659FC4F8081E9CF36
:10295000E0918B0381E08E0F80938B038091BB000D
:10296000F0E0E659FC4F808390918B0380918A03BD
:102970009817C8F285E8D8CFE0918B0381E08E0FDD
:1029800080938B038091BB00F0E0E659FC4F80837D
:1029900080918D0381115CCF81E08093680384EA8C
:1029A0008093BC0010928E0326CF85EC8093BC00F0
:1029B00010928E0380914503803230F4E0914503FC
:1029C000F0E0EB5DFC4F10826091450370E0E09118
:1029D0002303F091240385E293E0099510924503C7
:1029E0000ACF10928C0334CF1F920F920FB60F9222
:1029F00011242F933F938F939F93AF93BF93809115
:102A0000F6029091F702A091F802B091F90230918C
:102A1000F50223E0230F2D3758F50196A11DB11DB6
:102A20002093F5028093F6029093F702A093F802A8
:102A3000B093F9028091FA029091FB02A091FC02FE
:102A4000B091FD020196A11DB11D8093FA029093F1
:102A5000FB02A093FC02B093FD02BF91AF919F9146
:102A60008F913F912F910F900FBE0F901F9018954F
:102A700026E8230F0296A11DB11DD2CF1F920F92FF
:102A80000FB60F9211242F933F934F935F936F9341
:102A90007F938F939F93AF93BF93EF93FF93E091B7
:102AA0000601F09107010995FF91EF91BF91AF9158
:102AB0009F918F917F916F915F914F913F912F9156
:102AC0000F900FBE0F901F9018951F920F920FB688
:102AD0000F9211242F933F934F935F936F937F93A4
:102AE0008F939F93AF93BF93EF93FF93E091040174
:102AF000F09105010995FF91EF91BF91AF919F91E1
:102B00008F917F916F915F914F913F912F910F9096
:102B10000FBE0F901F9018951F920F920FB60F9235
:102B200011242F933F934F935F936F937F938F93D2
:102B30009F93AF93BF93EF93FF9385EC93E00E9435
:102B40002109FF91EF91BF91AF919F918F917F915B
:102B50006F915F914F913F912F910F900FBE0F900A
:102B60001F9018951F920F920FB60F9211242F935A
:102B70008F939F93EF93FF93E091D503F091D6034A
:102B80008081E091DB03F091DC0382FD1BC090812A
:102B90008091DE038F5F8F732091DF03821741F0F6
:102BA000E091DE03F0E0EB53FC4F958F8093DE0362
:102BB000FF91EF919F918F912F910F900FBE0F90EA
:102BC0001F9018958081F4CF1F920F920FB60F922D
:102BD00011248F938091D2028F5F8093D2028F91C4
:102BE0000F900FBE0F901F901895EF92FF920F93CA
:102BF0001F93CF93DF9300D0CDB7DEB71092BC0305
:102C00001092BB0388EE93E0A0E0B0E08093BD0398
:102C10009093BE03A093BF03B093C00322E131E0C1
:102C20003093BA032093B9031092C8031092C703DC
:102C30008093C9039093CA03A093CB03B093CC03B2
:102C400084E291E09093C6038093C50385EC90E005
:102C50009093D2038093D10384EC90E09093D403BB
:102C60008093D30380EC90E09093D6038093D503B8
:102C700081EC90E09093D8038093D70382EC90E0AE
:102C80009093DA038093D90386EC90E09093DC0371
:102C90008093DB031092DE031092DF031092E003B7
:102CA0001092E1038EEF90E09093690480936804A2
:102CB00085E190E0909365048093640484E290E061
:102CC00090936304809362048BE091E090936B0493
:102CD00080936A048FEF93E090936D0480936C046B
:102CE00010926704109266040BE011E0C8010E9484
:102CF0006022780195E1E90EF11C8F3F69F1109394
:102D00006704009366048FEFE81683E0F80654F535
:102D1000C7010E9460228F3FD9F00BE011E0809143
:102D20006C0490916D0408171907E4F41A83098361
:102D30006FEFCE0101960E949313109267041092D8
:102D400066048091640490916504080F191FE7CF11
:102D500095E1E90EF11CD7CF87018FEFE81683E0EC
:102D6000F80621F681E380939B0482ED80939C0416
:102D700087E180939D0411E010939E0499E1909364
:102D80009F041092A00422E330E03093A204209329
:102D9000A1041092A30480939A048AE0809395047E
:102DA0008BE0809396048CE0809397048DE0809371
:102DB00098041092990460E081E10E94B405EFEF5D
:102DC000F7E0E491E0938504EBEEF7E0E491F0E0C6
:102DD000EE0FFF1FE053F84F859194919093870475
:102DE00080938604109290041092920410929104A1
:102DF00010928F0410928E0410928D0410928C0405
:102E000010928B0410928A04109289041092880404
:102E1000109284041092830410926F0485E894E069
:102E2000909378048093770410927504109276043E
:102E300010926E0489E080937104109372041093D1
:102E40007304109374040F900F90DF91CF911F9132
:102E50000F91FF90EF900895CF93DF93CDB7DEB73A
:102E6000E7970FB6F894DEBF0FBECDBF789484B558
:102E7000826084BD84B5816084BD85B5826085BD76
:102E800085B5816085BD80916E00816080936E0004
:102E900010928100809181008260809381008091F6
:102EA00081008160809381008091800081608093A7
:102EB00080008091B10084608093B1008091B00067
:102EC00081608093B00080917A00846080937A0062
:102ED00080917A00826080937A0080917A0081608C
:102EE00080937A0080917A00806880937A001092B3
:102EF000C10061E089E00E94B40561E089E00E94C0
:102F0000470562E086E00E94B40562E080E10E942D
:102F1000B40562E08EE00E94B40562E084E10E94A4
:102F2000B40562E085E10E94B40562E084E00E949D
:102F3000B40562E087E00E94B40562E088E00E9488
:102F4000B40587E00E941E0521E0892B09F420E0EA
:102F50002093DB0288E00E941E0521E0892B09F402
:102F600020E02093DA02E091D503F091D60382E0CD
:102F70008083E091D103F091D2031082E091D303DA
:102F8000F091D40380E180831092DD03E091D903B6
:102F9000F091DA0386E08083E091D703F091D803C3
:102FA000808180618083E091D703F091D803808194
:102FB00088608083E091D703F091D8038081806896
:102FC0008083E091D703F091D80380818F7D808347
:102FD0008DE791E00E943E0E83E991E00E94920EFF
:102FE00080EA91E00E943E0E64E670E080E090E0AE
:102FF0000E94290786E09FEF0E94EE0D882329F1A9
:10300000CE0101960E94D20DE980FA80F7FC1DC026
:10301000570123E0A20EB11CFBE9CF2EF4E0DF2E16
:1030200007E010E0C8010E946022D6018D936D0177
:103030000F5F1F4F0A151B05A8F3B4E0EB16F10450
:1030400021F085EE90E00E94320E80919E0488234C
:1030500009F427C10E94B81286EA91E00E943E0E50
:1030600080EC91E00E943E0E00919C0410919B0424
:1030700080919A04809393041092940461E080916B
:1030800095040E94B40561E0809196040E94B40505
:1030900060E0809197040E94B40561E080919804FB
:1030A0000E94B4052A9A80E58CBD8DB581608DBDE6
:1030B0000E945C076B017C016AEA8FE20E943A047D
:1030C0008FE20E9432048A3A59F00E945C076C1920
:1030D0007D098E099F09623371058105910560F3B1
:1030E0000E945C076C197D098E099F096233710586
:1030F0008105910508F0CDC00E945C076B017C0141
:1031000065E58FE20E943A048FE20E943204853521
:1031100059F00E945C076C197D098E099F09623382
:1031200071058105910560F30E945C076C197D09AA
:103130008E099F09623371058105910508F0A9C0C8
:10314000FE0133968BE2DF011D928A95E9F781E05B
:10315000898394E09A8322E02B8383E08D832E83FE
:103160009F8390E4988725E029878A8786E08B876C
:1031700083E38C8787E08D8728E02F8729E0298BE0
:1031800029E12B8B22E42C8B35E23D8B9E8B96E242
:103190009F8B888F88E2898F90E19A8F89E28B8F4D
:1031A0008CED8C8F8EE28D8F88E88E8F8FE28F8FE3
:1031B0008DE288A380E389A337E33BA330E93CA3F6
:1031C00038E33DA32EA32CE32FA32FE828A72DE35C
:1031D00029A79AA79FE69BA78CA78EE41F3159F0D9
:1031E0001B3241F0113331F089ED163521F084EEB8
:1031F0001B3509F08CE68E871F3131F180E41B32DC
:1032000041F0113329F080E0163519F01B35E1F05B
:103210008AE7888B1F3141F01B3231F01133B1F056
:10322000163511F01B3591F480E08A8B0AA38E01CC
:103230000F5F1F4FF8018081882351F061810E9448
:103240003A040E5F1F4FF6CF80ECE3CF81EEEDCF57
:1032500090E080E00E949C0769E981E10E943A04C5
:1032600084E00E9468070E945C076B017C0187E292
:103270000E94320487FD0BC00E945C076C197D0917
:103280008E099F09623371058105910580F30E94C3
:103290005C078CEC91E00E949C078DED91E00E9410
:1032A0003E0E61E085E00E94B40560E081E00E948E
:1032B000B40562E083E00E94B40589EE91E00E94CB
:1032C0003E0E82E10E941E05019709F041C0109256
:1032D000470310924603109295031092B7030E9481
:1032E00075058DE694E09093200380931F038EE68E
:1032F00094E0909324038093230311E010939403AC
:1033000080E48093B60381E00E941506882359F17A
:1033100062E070E082E091E00E94050768E070E002
:10332000CE0101960E94EB0F62E070E080E091E038
:103330000E94050766E070E0CE0101960E94EB0F47
:10334000098110E00115110589F41092DD0206C013
:1033500083E10E941E05019709F4B9CF86EF91E041
:103360000E943E0E4BC01093D302D2CF81E08093D7
:10337000DD020E94D21029833A834B835C836D83E4
:103380007E8383E092E00E94920EC8010E94C20EEA
:1033900064E670E080E090E00E94290788E192E016
:1033A0000E94920E69817A81072E000C880B990B7E
:1033B0000E94432120E030E048EC52E40E944D237B
:1033C00042E00E94CE0E8EE192E00E94920E6D814C
:1033D0007E8190E080E00E94412120E030E048ECD6
:1033E00052E40E944D2342E00E94CE0E0E942E0E17
:1033F00064E670E080E090E00E94290761E085E0EB
:103400000E94470562E370E080E090E00E94290797
:10341000E0917704F091780413861586148612865D
:1034200011861086178216821582148213821092DA
:1034300075041092760411E0BE016F5F7F4F80919A
:103440007704909178040E944211882309F459C0AE
:1034500067E0CE0101960E94E70998858913ECCFB9
:10346000809175048F5F809375048981883231F073
:1034700008F041C0803111F08232F1F6809176047B
:103480008F5F8093760480916E04811128C08091B3
:103490007704909178040E94A40ABE016F5F7F4F69
:1034A00080917704909178040E94850A40E064EB53
:1034B00080917704909178040E94510A809177045A
:1034C000909178040E94FE09082F809177049091D2
:1034D00078040E94A40A011102C010936E04CE0168
:1034E00001960E940E0C90917104981708F0A4CFD9
:1034F00080937104A1CF8B3309F2823409F09CCF01
:10350000BDCF109272042091A404EBE9F4E084E0B2
:1035100090E0211128C08091750490E09093DF0223
:103520008093DE02059734F084E090E09093DF0210
:103530008093DE0210E0612F70E08091DE029091B6
:10354000DF0268177907F4F4E3E0660F771FEA9566
:10355000E1F76C557B4F85E894E00E944211882387
:1035600089F01F5FE8CF482F392F0097F1F151A163
:10357000019738975832B9F74093DE023093DF0253
:103580002832C1F60091DE021091DF02011511050B
:1035900009F4CEC08091A304882309F453C061E0EC
:1035A00085E00E94470582E390E00E94AC0D74EA3A
:1035B000E72E74E0F72ED12CC12CC016D106D4F41E
:1035C000C7010E94C2110E94470C2BAB3CAB4DAB14
:1035D0005EAB6FAB87E791E00E94AC0DFFEFCF1AB7
:1035E000DF0A28E0E20EF11CE8CF1092DF02109211
:1035F000DE02C6CF0E944E0B6B017C0120E030E062
:103600004AEF52E40E943C2187FF18C020E030E0DE
:1036100040E252ECC701B6010E94F523181674F47B
:1036200020E030E040E251E4C701B6010E94A2214F
:103630000E94BF237093E3026093E20260E085E0A2
:103640000E9447058DE291E00E949009C8010E9406
:10365000940E80E892E00E94920E84E090E00E9436
:10366000C20E8091DE029091DF02892B09F444C0E2
:1036700089E191E00E94320E64EAE62E64E0F62EC3
:10368000D12CC12C8091DE029091DF02C816D906A0
:103690009CF5570188E0A80EB11C8701D8018D91D7
:1036A0008D01803120F487E191E00E949009F801BA
:1036B0003197608170E090E080E040E10E944E0E22
:1036C00085E191E00E949009A016B10639F7F70153
:1036D0008681833021F48AEF90E00E9490090E9455
:1036E0002E0E65E070E080E090E00E942907FFEF79
:1036F000CF1ADF0A7801C6CF65E070E080E090E085
:103700000E94290789E292E00E94920E90E080E0F8
:103710000E94940E8EE792E00E94920E8091E20247
:103720009091E3020E94940E80E392E00E943E0E8C
:1037300088EE93E0A0E0B0E08093C9039093CA03C1
:10374000A093CB03B093CC0380919E0481FF5CC017
:103750008EE491E00E943E0E82E392E00E943E0ED3
:103760000E945C076093D6027093D7028093D802C0
:103770009093D90201E00E945C07AB01BC0110915B
:10378000D5028091D6029091D702A091D802B09133
:10379000D9028854944FAF4FBF4F481759076A0753
:1037A0007B07E8F585EC93E00E94010905971CF37F
:1037B0001111E1CF65E070E0CE0101960E9418087A
:1037C000059759F589818B3241F58A818B3229F52C
:1037D0008C818D3011F58D818A30F9F48B818B329B
:1037E000B1F40093D50282E08093D402882319F2C9
:1037F00083EA92E00E94320E8091D402823009F076
:10380000BACF0E94B009B7CF8CE691E0A3CF83373F
:1038100021F40093D50281E0E7CF80E0E5CF2224B8
:1038200023941111DBC088E792E00E94320E62E31C
:1038300070E080E090E00E9429070E94810D80B72F
:10384000806880BF80919E0481FD05C080916400E6
:10385000826080936400809164008068809364003B
:10386000809164008460809364008091640088602B
:10387000809364008091DB02811104C060E087E0E6
:103880000E94B4058091DA02811104C060E088E0F2
:103890000E94B4058091DD02882321F060E089E078
:1038A0000E94470501E49CEEC92E92E0D92E20E04B
:1038B000E22E20E0F22E8091F402882341F08091E4
:1038C000A1049091A2040E94F70C1092F40280E5EA
:1038D00090E00E94F70C813099F48091F002909171
:1038E000F102A091F202B091F3020196A11DB11D67
:1038F0008093F0029093F102A093F202B093F3024E
:103900008091F0029091F102A091F202B091F30245
:10391000823B9240A105B10570F48091EC02909138
:10392000ED02A091EE02B091EF0284369105A1055F
:10393000B10508F45FC48091A004882331F1F894A4
:103940004091EC025091ED026091EE027091EF0215
:103950008091E8029091E902A091EA02B091EB0215
:10396000840F951FA61FB71F8093E8029093E9026A
:10397000A093EA02B093EB021092EC021092ED02D7
:103980001092EE021092EF027894A090DE02B090B6
:10399000DF02A114B10409F414C38091A3048823A5
:1039A00009F40FC361E085E00E94470582E390E0DF
:1039B0000E94AC0D8BE994E0712C612C4C01A8E0C5
:1039C0008A0E911C6A147B040CF0C8C209960E94EE
:1039D000C211BFEF6B1A7B0AC401F0CF6090D50211
:1039E000662009F42ACF85EC93E00E940109892B17
:1039F000A9F385EC93E00E940408803709F49CC188
:103A000004F5893609F486C18CF48F3309F4A1C218
:103A1000873609F4A7C085EC93E00E940109892B41
:103A2000E9F285EC93E00E940408F5CF8D3609F4A5
:103A3000ACC08E3609F46EC18C3669F70E94B8129C
:103A4000EACF843709F4F4C10CF078C0823709F466
:103A500085C1833701F789E692E00E943E0E86E039
:103A60009FEF0E94EE0D811128C01A8219826FE427
:103A7000CE0101960E94931381E090E09A8389839E
:103A800065E4CE0101960E949313A2E0B0E0BA83F0
:103A9000A9836DE4CE0101960E94931303E010E028
:103AA0001A8309836FEFCE0101960E9493130F5F73
:103AB0001F4F0115B4E01B0799F7EDE2F0E0FA8320
:103AC000E98386E09FEF9C838B83CE0101960E9461
:103AD000AC130BE914E047E0E42EF12CD8016D9112
:103AE0008D01FFA6EEA6CE018E960E949313BFEF26
:103AF000EB1AFB0AE0E3EE16F10481F790E080E0B8
:103B00000E94EE0D811152C18AE192E00E9490095B
:103B10004AE060E074E080E090E00E944E0E84EFA6
:103B200091E00E94320E60E074E090E080E00E943C
:103B3000A60F82EF91E00E94900944C1873709F4F3
:103B4000DAC1883709F4EDC1863709F064CF82E520
:103B500092E00E94900980EA91E00E94210E84E3A5
:103B600091E0D5C00E94A50860939C0481E792E093
:103B70000E94900960919C0470E090E080E04AE02F
:103B80000E944E0E0E942E0E46CF0E94A5088B0169
:103B90000E947308FC0197FD87C08D32910559F092
:103BA000C0970A9740F0EE32F10529F085EC93E0DA
:103BB0000E940408EDCF312C712C812C912C50E8FF
:103BC000A52E5FE3B52EC12CD12C7601E130F10595
:103BD00049F1ED32F105C9F1EE32F105C1F1CF0144
:103BE000C0970A97F8F4AAE0B0E0A70196010E94F6
:103BF00076226F01FF0FEE08FF08C60ED71EE81EE3
:103C0000F91E20E3C21AD108E108F108332051F06F
:103C10002DEC3CEC4CEC5DE3C501B4010E94A2210B
:103C20004B015C0185EC93E00E9404080E9473083C
:103C3000FC01C0970A9750F2EE32F10551F433209F
:103C400029F27720E1F0372C0AC0762CEBCF362C06
:103C5000E9CFE130F10509F4B9CF772041F0F094D4
:103C6000E094D094C094C11CD11CE11CF11CC7018C
:103C7000B6010E9443212B013C01332051F0C701C2
:103C8000B6010E944321A50194010E94A2212B01AB
:103C90003C0185EC93E00E940109892B49F085ECF9
:103CA00093E00E940408F5CF412C512C3201F1CF52
:103CB0000115110599F001301105D1F088E692E067
:103CC0000E949009012B09F142E0C301B2010E9458
:103CD000CE0E84E692E00E94320E9DCE1092A00499
:103CE000E99887EC97E09093070180930601E6CF6F
:103CF0002092A004C301B2010E94BF237093A204CA
:103D00006093A1040E94810DD9CF8AE491E00E94C2
:103D10003E0E81CE0E94A508662361F0603408F053
:103D20006FE360939D048EE592E00E94900960919C
:103D30009D0422CF61E0F5CF0E94A5086F716093CA
:103D40009F0484E692E00E94920E80919F0482512B
:103D5000990B0E94940E87E691E0D9CF85E691E019
:103D60000E94320E86E09FEF0E94EE0D882389F0BC
:103D7000CE0101960E94D20D89819A8197FD09C0DA
:103D80009195819591099A838983CE0101960E942C
:103D9000AC138EE391E00E94320E68EC70E080E09C
:103DA00090E00E9429070C94000035CECE010196C8
:103DB0000E94D20D8B819C81019649F481EA91E0A9
:103DC0000E94320E0E942E0E81E292E084CF84E99E
:103DD00091E00E9490096B817C8190E080E04AE054
:103DE0000E944E0E09811A8117FF03C0119501959B
:103DF00011090450110986E891E00E949009C80158
:103E00000E94940E8FE791E00E94900989819A8127
:103E100097FF04C084E791E00E9490090E942E0E53
:103E2000B80187E090E00E94A60F82E791E083CE80
:103E30000E94A5086B01CB01892B59F40E94A508AB
:103E400021E0672B682B692B09F420E02093A30461
:103E5000E2CD6530710508F0DECD61E070E0CE01A5
:103E60008E960E94180810E000E061E070E0CE013C
:103E70008E960E941808892B49F1083038F58EA5D6
:103E8000803221F08D3011F08A3051F4E1E0F0E021
:103E9000EC0FFD1FE00FF11D10830F5F10E0E5CF69
:103EA0001295107F90ED980F9A3030F09FEB980F9D
:103EB000963020F499EC980F190FD7CF9FE9980FFF
:103EC000963010F499EAF7CF90E0F6CFDE01119624
:103ED00033E0CC0CDD1C3A95E1F781E090E02D91C8
:103EE000F601E80FF91FE556FB4F20830196893054
:103EF0009105A9F790CD0E94A50860939E0481E4E6
:103F000091E060FD02C087E491E00E943E0E809146
:103F10009E0481FF03C08EE491E0F9CE88E591E034
:103F2000F6CE84E492E00E94320E85EC93E00E948B
:103F30000109892B29F085EC93E00E940408F5CF54
:103F40001092D5026AE070E080E090E00E942907BC
:103F500062CD0E94B00982E492E0BDCE0E94470C7F
:103F60002EA73FA748AB59AB6AAB87E791E00E9409
:103F7000AC0D0E944E0B4B015C0120E030E04AEF9B
:103F800052E40E943C2187FF18C020E030E040E26C
:103F900052ECC501B4010E94F523181674F420E018
:103FA00030E040E251E4C501B4010E94A2210E9428
:103FB000BF237093E3026093E20260E085E00E9419
:103FC000470500937C0080917A00806480937A009A
:103FD00080917A0086FDFCCF609178007091790025
:103FE000072E000C880B990B0E94432126E234EE29
:103FF00043E05DE30E94A2210E94BF237093E70289
:104000006093E6028091DD028823C1F18091640013
:104010008F77809364000E94D21029833A834B8368
:104020005C836D837E8369817A81072E000C880B07
:10403000990B0E9443212DEC3CEC4CEC5DE30E947B
:10404000A2210E94BF237093E1026093E0026D8180
:104050007E8190E080E00E9441212DEC3CEC4CEC14
:104060005DE30E94A2210E94BF237093E50260934A
:10407000E4028091640080688093640080919E04D3
:1040800080FF3DC0809164008B7F809364008EE14F
:1040900090E00E94AC0D10919A048091DC0281178F
:1040A00041F010939304612F89E30E943A04109326
:1040B000DC0284E00E9468070E945C074B015C01FF
:1040C00087E20E94320487FDA1C00E945C07681944
:1040D00079098A099B09643671058105910580F388
:1040E00084E00E94680780E00E94680784E690E010
:1040F0000E94AC0D80916400846080936400809184
:104100009E0481FF6DC088E192E00E94920E809132
:10411000E0029091E1020E94940E80E392E00E94FE
:10412000920E8091DE029091DF02892BB1F089E23C
:1041300092E00E94920E90E080E00E94940E8EE742
:1041400092E00E94920E8091E2029091E3020E941E
:10415000940E80E392E00E94920E8091DD0288230B
:1041600071F08FE192E00E94920E8091E4029091B2
:10417000E5020E94940E80E392E00E94920E83E793
:1041800092E00E94920E8091E6029091E7020E94D6
:10419000940E8091E8029091E902A091EA02B09118
:1041A000EB02892B8A2B8B2B99F080E392E00E9403
:1041B000920E89E792E00E94920E6091E80270915F
:1041C000E9028091EA029091EB024AE00E944E0ED1
:1041D0000E942E0E65E070E080E090E00E942907CA
:1041E0000E945C071092F0021092F1021092F2020B
:1041F0001092F302E114F10409F45DCB0E940D0961
:10420000882309F458CB0E94000055CB2A9880E8F7
:104210000E942C048FE00E942C0485E00E942C0454
:10422000809193040E942C0480E00E942C0480EE74
:10423000A82E82E0B82EF50181915F010E942C0426
:10424000CA14DB04C1F72A9A8CE00E9468070E9416
:104250005C074B015C0188E20E94320483FD40CF81
:104260000E945C07681979098A099B0964367105FF
:104270008105910580F334CF0E947E2108F481E00E
:104280000895E89409C097FB3EF490958095709549
:1042900061957F4F8F4F9F4F9923A9F0F92F96E992
:1042A000BB279395F695879577956795B795F11107
:1042B000F8CFFAF4BB0F11F460FF1BC06F5F7F4FA4
:1042C0008F4F9F4F16C0882311F096E911C07723B6
:1042D00021F09EE8872F762F05C0662371F096E8BF
:1042E000862F70E060E02AF09A95660F771F881F8E
:1042F000DAF7880F9695879597F90895990F000832
:10430000550FAA0BE0E8FEEF16161706E807F907A7
:10431000C0F012161306E407F50798F0621B730B42
:10432000840B950B39F40A2661F0232B242B252BC3
:1043300021F408950A2609F4A140A6958FEF811D66
:10434000811D08950E94B5210C9426220E941822F6
:1043500038F00E941F2220F0952311F00C940F22B8
:104360000C94152211240C945A220E94372270F3C7
:10437000959FC1F3950F50E0551F629FF001729F0A
:10438000BB27F00DB11D639FAA27F00DB11DAA1F19
:10439000649F6627B00DA11D661F829F2227B00D66
:1043A000A11D621F739FB00DA11D621F839FA00DF1
:1043B000611D221F749F3327A00D611D231F849F41
:1043C000600D211D822F762F6A2F11249F57504098
:1043D0009AF0F1F088234AF0EE0FFF1FBB1F661F13
:1043E000771F881F91505040A9F79E3F510580F0DC
:1043F0000C940F220C945A225F3FE4F3983ED4F3BE
:10440000869577956795B795F795E7959F5FC1F77F
:10441000FE2B880F911D9695879597F9089597F92A
:104420009F6780E870E060E008959FEF80EC08955A
:1044300000240A9416161706180609060895002483
:104440000A9412161306140605060895092E0394FD
:10445000000C11F4882352F0BB0F40F4BF2B11F471
:1044600060FF04C06F5F7F4F8F4F9F4F089557FDD0
:104470009058440F551F59F05F3F71F04795880FD2
:1044800097FB991F61F09F3F79F087950895121669
:1044900013061406551FF2CF4695F1DF08C0161615
:1044A00017061806991FF1CF8695710561050894C6
:1044B0000895E894BB2766277727CB0197F90895DD
:1044C000F999FECF92BD81BDF89A992780B50895DC
:1044D000262FF999FECF1FBA92BD81BD20BD0FB620
:1044E000F894FA9AF99A0FBE019608950E948122D3
:1044F000A59F900DB49F900DA49F800D911D112438
:104500000895A29FB001B39FC001A39F700D811DAC
:104510001124911DB29F700D811D1124911D0895CC
:1045200097FB072E16F4009407D077FD09D00E9460
:10453000C62207FC05D03EF4909581959F4F0895C3
:10454000709561957F4F0895A1E21A2EAA1BBB1B9F
:10455000FD010DC0AA1FBB1FEE1FFF1FA217B3074F
:10456000E407F50720F0A21BB30BE40BF50B661F65
:10457000771F881F991F1A9469F760957095809529
:1045800090959B01AC01BD01CF010895AA1BBB1BF7
:1045900051E107C0AA1FBB1FA617B70710F0A61B43
:1045A000B70B881F991F5A95A9F780959095BC0164
:1045B000CD010895EE0FFF1F0590F491E02D0994B1
:1045C0005058BB27AA270E94F8220C9426220E944A
:1045D000182238F00E941F2220F039F49F3F19F46E
:1045E00026F40C9415220EF4E095E7FB0C940F22B0
:1045F000E92F0E94372258F3BA176207730784071E
:10460000950720F079F4A6F50C9459220EF4E09564
:104610000B2EBA2FA02D0B01B90190010C01CA017C
:10462000A0011124FF27591B99F0593F50F4503E27
:1046300068F11A16F040A22F232F342F4427585F19
:10464000F3CF469537952795A795F0405395C9F731
:104650007EF41F16BA0B620B730B840BBAF09150E9
:10466000A1F0FF0FBB1F661F771F881FC2F70EC088
:10467000BA0F621F731F841F48F48795779567955B
:10468000B795F7959E3F08F0B0CF9395880F08F047
:104690009927EE0F9795879508950E9461230C94B2
:1046A00026220E941F2258F00E94182240F029F46E
:1046B0005F3F29F00C940F2251110C945A220C9454
:1046C00015220E94372268F39923B1F3552391F301
:1046D000951B550BBB27AA2762177307840738F071
:1046E0009F5F5F4F220F331F441FAA1FA9F335D0CE
:1046F0000E2E3AF0E0E832D091505040E695001C82
:10470000CAF72BD0FE2F29D0660F771F881FBB1F3B
:10471000261737074807AB07B0E809F0BB0B802D19
:10472000BF01FF2793585F4F3AF09E3F510578F045
:104730000C940F220C945A225F3FE4F3983ED4F37A
:10474000869577956795B795F7959F5FC9F7880F19
:10475000911D9695879597F90895E1E0660F771F6B
:10476000881FBB1F621773078407BA0720F0621BFC
:10477000730B840BBA0BEE1F88F7E09508950E9427
:10478000C6236894B1110C945A2208950E943F22C6
:1047900088F09F5798F0B92F9927B751B0F0E1F002
:1047A000660F771F881F991F1AF0BA95C9F714C0B2
:1047B000B13091F00E945922B1E008950C94592231
:1047C000672F782F8827B85F39F0B93FCCF38695EB
:1047D00077956795B395D9F73EF490958095709548
:1047E00061957F4F8F4F9F4F08950E947E2108F45F
:1047F0008FEF08950E947E21880B990B0895F894FD
:02480000FFCFE8
:10480200FCC9FA0FC707C7075E00BC0077010000AA
:104812000000C6049904670D6F0492047F047004BB
:10482200000000004309C807F507C7090109040889
:1048320065080D0A006E616E00696E66006F76662D
:10484200005246206F6E005246206F666600536526
:104852007269616C206F6E0053657269616C206FC2
:10486200666600206D73002064426D0053657269B4
:10487200616C207072696E74206F6666004F70659D
:104882006E456E657267794D6F6E69746F722E6FC9
:10489200726700656D6F6E54482046573A20560085
:1048A200342E322E3000526164696F466F726D6130
:1048B200743A204C6F77506F7765724C6162730067
:1048C200496E69742052464D2E2E2E003839747866
:1048D200626534703861696B356B74330052464DD2
:1048E200205374617274656400496E7420534937B1
:1048F2003032312E2E005349373032312045727218
:104902006F720053493730323120537461727465CB
:10491200642C2049443A200074656D703A002C687A
:10492200756D69646974793A0074656D70657800B3
:104932002C00272B2B2B27207468656E205B456E7D
:104942007465725D20666F7220636F6E66696720A0
:104952006D6F64652C2077616974696E67203373AB
:104962002E2E2E0070203D2000536176696E672E38
:104972002E2E00626174743A0070756C73653A0091
:06498200206F662000001A
:00000001FF
