:100000000C943E040C9491150C946A150C9466049F
:100010000C9466040C9466040C9410160C946604FC
:100020000C9466040C9466040C9466040C946604A8
:100030000C9466040C9466040C9466040C94660498
:100040000C9420150C9466040C94DE150C94B815D1
:100050000C9466040C9466040C9466040C94660478
:100060000C9401140C946604524620706F776572EC
:10007000203D20004453313842323020656E6162A9
:100080006C6564203D200070756C7365207065722E
:10009000696F64203D200070756C73657320656E18
:1000A00061626C6564203D2000204D487A002C2060
:1000B00042616E6420002C204E6F64652000477200
:1000C0006F75702000005EBCE2613FDD83C29C7EE4
:1000D00020A3FD1F41009D23BE46DB65F88C11AFB8
:1000E00032CA57E9744C6F616465642045455052CB
:1000F0004F4D20636F6E6669670053656E736F7254
:10010000206D6179206E6F742062652072656C6964
:1001100061626C6500200030002C207769746820D3
:100120006164647265737365732E2E2E00445331BF
:100130003842323020666F756E64203D2000656D58
:100140006F6E54482072657374617274696E6720B3
:10015000776974682064656661756C7420636F6E7E
:100160006669672E00526573657474696E672E2E1A
:100170002E000A00202868696464656E292E00201C
:100180006279746573002C20446174612073697A0C
:10019000653A2000205369676E61747572653A2074
:1001A000004E6F206461746120626C6F636B206627
:1001B0006F756E64202D20454550524F4D20617063
:1001C000706561727320746F20626520666F726D56
:1001D000617474656420746F204F454D20537461C1
:1001E0006E646172642062757420756E75736564E7
:1001F0002E000A002062797465732C206E6F7420C3
:10020000666F726D617474656420746F204F454D24
:10021000205374616E646172640053697A653A2098
:1002200000446F6E652E204E657720636F6E6669A1
:100230006720736176656420746F20454550524F86
:100240004D002000436F6E74696E75696E672E2EC7
:100250002E00456D6F6E54485F56322056004E6F2B
:1002600064652000206D730050756C7365733A20CF
:100270000047726F75702000204D487A00436F6E02
:1002800074696E75696E6720776974686F7574201C
:10029000656E746572696E6720636F6E666967204C
:1002A0006D6F64652E2E2E00456E746572696E67E3
:1002B0002053657474696E6773206D6F64652E2EAC
:1002C0002E0000000000240027002A00000000008B
:1002D000250028002B000000000800020100000398
:1002E000040700000000000000000A417661696C0C
:1002F00061626C6520636F6D6D616E64733A0A2094
:10030000206C2020202020202020202D206C6973AC
:1003100074207468652073657474696E67730A204D
:1003200020722020202020202020202D2072657384
:10033000746F726520736B657463682064656661B1
:10034000756C74730A202073202020202020202028
:10035000202D20736176652073657474696E6773F0
:1003600020746F20454550524F4D0A2020762020A2
:10037000202020202020202D2073686F77206669A0
:10038000726D776172652076657273696F6E0A208F
:1003900020782020202020202020202D2065786912
:1003A000742C206C6F636B20616E6420636F6E74BD
:1003B000696E75650A20203F202020202020202003
:1003C000202D2073686F77207468697320746578B6
:1003D0007420616761696E0A0A2020773C783E20AC
:1003E00020202020202D207475726E2052464D2032
:1003F000576972656C657373202F2053657269614C
:100400006C206461746120626F7468206F66663A64
:100410002078203D20302C20776972656C657373DD
:10042000206F6E6C793A20783D312C2073657269AB
:10043000616C206F6E6C793A20783D32206F7220AB
:10044000626F74683A2078203D20330A2020623C95
:100450006E3E2020202020202D2073657420722ED7
:10046000662E2062616E64206E203D2061207369DB
:100470006E676C65206E756D6572616C3A20342014
:100480003D203433334D487A2C2038203D203836F7
:10049000384D487A2C2039203D203931354D487A65
:1004A00020286D61792072657175697265206861B7
:1004B000726477617265206368616E6765290A20DE
:1004C00020703C6E6E3E20202020202D207365740D
:1004D0002074686520722E662E20706F7765722EEC
:1004E000206E6E202D20616E20696E7465676572C6
:1004F0002030202D20333120726570726573656E57
:1005000074696E67202D31382064426D20746F202D
:100510002B31332064426D2E2044656661756C7406
:100520003A20323520282B372064426D290A2020BA
:10053000673C6E6E6E3E202020202D207365742057
:100540004E6574776F726B2047726F757020206EE6
:100550006E6E202D20616E20696E74656765722055
:10056000284F454D2064656661756C74203D2032CE
:100570003130290A20206E3C6E6E3E202020202043
:100580002D20736574206E6F6465204944206E3D94
:1005900020616E20696E74656765722028737461CE
:1005A0006E64617264206E6F64652069647320619B
:1005B000726520312E2E3630290A0A20206D3C78B3
:1005C0003E203C79793E202D206D65746572207047
:1005D000756C736520636F756E74696E673A0A2077
:1005E00020202020202020202020202020207820B3
:1005F0003D203020666F72204F46462C2078203DEB
:10060000203120666F72204F4E2C203C79793E209D
:100610003D20616E20696E746567657220666F7239
:10062000207468652070756C7365206D696E696DE6
:10063000756D20706572696F6420696E206D732E10
:10064000202879206973206E6F74206E656564655B
:10065000642C206F722069676E6F72656420776802
:10066000656E2078203D2030290A20207430203CFF
:10067000793E202020202D207475726E20657874BC
:1006800065726E616C2074656D70657261747572EF
:1006900065206D6561737572656D656E74206F6E32
:1006A000206F72206F66663A0A20202020202020CA
:1006B00020202020202D2079203D203020666F72C0
:1006C000204F46462C2079203D203120666F722035
:1006D0004F4E0A2020743C783E203C79793E203CE5
:1006E00079793E203C79793E203C79793E203C79ED
:1006F000793E203C79793E203C79793E203C7979DD
:100700003E0A2020202020202020202020202D20D4
:100710006368616E676520616E2065787465726ECE
:10072000616C2074656D706572617475726520739B
:10073000656E736F722773206164647265737320D2
:100740006F7220706F736974696F6E3A0A2020208F
:100750002020202020202020202D2078203D2061D6
:100760002073696E676C65206E756D6572616C3A99
:100770002074686520706F736974696F6E206F668E
:10078000207468652073656E736F7220696E2074C3
:100790006865206C6973742028312D62617365640B
:1007A000290A2020202020202020202020202D2049
:1007B0007979203D20382068657861646563696DCA
:1007C000616C2062797465732072657072657365FF
:1007D0006E74696E67207468652073656E736F72DE
:1007E000277320616464726573730A2020202020BF
:1007F00020202020202020202020652E672E202051
:100800003238203831203433203331203037203013
:10081000302030302044390A202020202020202081
:10082000202020202020204E2E422E2053656E7343
:100830006F72732043414E4E4F54206265206164B5
:100840006465642E0A000A000000000023002600F0
:100850002900040404040404040402020202020243
:100860000303030303030102040810204080010274
:1008700004081020010204081020211611241FBEB4
:10088000CFEFD8E0DEBFCDBF24E0A6E8B2E001C0E4
:100890001D92A43CB207E1F712E0A0E0B1E0EEE562
:1008A000F8E402C005900D92A638B107D9F714E01C
:1008B000CEE3D4E004C02197FE010E940823CD338B
:1008C000D107C9F70E9458170C942D240C940000EE
:1008D0008EBD0DB407FEFDCF8EB508952A980E94F7
:1008E000680480E00E9468042A9A0895CF93C62F76
:1008F0002A9880680E9468048C2F0E9468042A9AB3
:10090000CF91089520912103260F3327331F2132E1
:100910003105ECF420918E03FC0190E080E024305E
:1009200069F082E00895A09121032191AC0141502A
:100930005D4FA40FB52FB11D2C930196861798F328
:1009400080912103680F6093210380E0089581E086
:100950000895089508950895E0914703809146030E
:10096000E81730F4F0E0E85BFC4F808190E00895F8
:100970008FEF9FEF089590914703809146032FEFEB
:100980003FEF981748F4E92FF0E0E85BFC4F208137
:1009900030E09F5F90934703C9010895809146031B
:1009A00090914703891B990B0895CF92DF92EF92A4
:1009B000FF920F931F93CF93DF937C01CB018A01AA
:1009C00020919403222389F0EB016B01C40ED51E04
:1009D000CC15DD0569F06991D701ED91FC9101908D
:1009E000F081E02DC7010995F3CF642F0E948204A6
:1009F000C801DF91CF911F910F91FF90EF90DF9091
:100A0000CF900895CF93DF931F92CDB7DEB7698360
:100A1000209194032223F9F02091B703203258F05B
:100A200021E030E0FC013383228390E080E00F90EE
:100A3000DF91CF91089580919503E82FF0E0EA5679
:100A4000FC4F998190838F5F809395038093B703C8
:100A500081E090E0ECCF61E0CE0101960E9482043B
:100A6000F7CF833081F028F4813099F08230A9F0FB
:100A700008958730A9F08830C9F08430B1F48091AE
:100A800080008F7D03C0809180008F7780938000ED
:100A9000089584B58F7784BD089584B58F7DFBCF8D
:100AA0008091B0008F778093B00008958091B0005E
:100AB0008F7DF9CFCF93DF93282F30E0F901EA52F1
:100AC000FD4F8491F901EA59F74FD491F901EE5A9B
:100AD000F74FC491CC23A1F081110E943105EC2F76
:100AE000F0E0EE0FFF1FE85BF74FA591B491EC919A
:100AF000ED2381E090E009F480E0DF91CF9108954B
:100B000080E090E0FACF1F93CF93DF93282F30E05F
:100B1000F901EA52FD4F8491F901EA59F74FD49156
:100B2000F901EE5AF74FC491CC23A9F0162F811189
:100B30000E943105EC2FF0E0EE0FFF1FE453FD4F54
:100B4000A591B4918FB7F894EC91111108C0D0958C
:100B5000DE23DC938FBFDF91CF911F910895DE2BB1
:100B6000F8CF10928E0381E080938D03109268037A
:100B700061E082E10E94830561E083E10E948305D8
:100B8000E9EBF0E080818E7F808380818D7F8083A0
:100B900088E48093B80085E48093BC000895CF93E7
:100BA000DF9391E09093FE028823B9F0C091B800E2
:100BB000D091BA008091BC008A7B8093BC0060E039
:100BC00082E10E94830560E083E10E9483050E9428
:100BD000B105D093BA00C093B800DF91CF910895CA
:100BE000CF93DF9390E0FC01EA59F74F24918E5A9E
:100BF000974FFC0184918823C9F090E0880F991FDA
:100C0000FC01EE53FD4FA591B491FC01E453FD4F5F
:100C1000C591D49161110DC09FB7F8948C91209526
:100C200082238C938881282328839FBFDF91CF91D3
:100C30000895623051F49FB7F8943C91822F8095CB
:100C400083238C93E8812E2BEFCF8FB7F894EC9110
:100C50002E2B2C938FBFEACF3FB7F8948091FA02E6
:100C60009091FB02A091FC02B091FD0226B5A89BD9
:100C700005C02F3F19F00196A11DB11D3FBFBA2F2E
:100C8000A92F982F8827BC01CD01620F711D811DEE
:100C9000911D42E0660F771F881F991F4A95D1F773
:100CA00008958F929F92AF92BF92CF92DF92EF9270
:100CB000FF920F931F93CF93DF93D091B703D1325D
:100CC00008F0D7C0182FC091B6030E942C066B0104
:100CD0007C0180918E0381116BC082E080938E0332
:100CE00010938D038FEF80938C0310928B03D0931E
:100CF0008A03A6E9B3E0EAE6F3E080E0D81391C006
:100D00001092690380916903CC0FC82BC0936903CB
:100D100080916803813009F088C0109268030E94B6
:100D20002C066B017C01809169038093BB0080914C
:100D3000900390919103A0919203B0919303892B1A
:100D40008A2B8B2BA1F00E942C060091900310910E
:100D5000910320919203309193036C197D098E09C0
:100D60009F09061717072807390708F442C0809122
:100D7000BC0083FDD8CF85EC8093BC000E942C067C
:100D80006B017C0180918E03823009F450C0809108
:100D90008C038F3F09F46FC080918C03803209F47B
:100DA0006CC080918C03803309F469C084E026C054
:100DB0008091900390919103A0919203B09193033D
:100DC000892B8A2B8B2B09F484CF0E942C068090D0
:100DD000900390909103A0909203B09093036C19AC
:100DE0007D098E099F0986169706A806B90608F0A0
:100DF00070CF80918F030E94CF0585E010929503FC
:100E00001092B70310929403DF91CF911F910F912D
:100E1000FF90EF90DF90CF90BF90AF909F908F901A
:100E200008959D9191938F5F69CF85EEA5CF8091B5
:100E3000900390919103A0919203B0919303892B19
:100E40008A2B8B2B09F49ECF0E942C0600919003D5
:100E50001091910320919203309193036C197D09B5
:100E60008E099F09061717072807390708F08ACF48
:100E7000C0CF81E0C3CF80E0C1CF82E0BFCF83E0AD
:100E8000BDCF0F931F93CF93DF93EC018B0181E0D4
:100E90008093940380E48093B6031092950310929C
:100EA000B703688189EB93E00E94020501301105C8
:100EB00029F0698189EB93E00E94020581E0DF91CE
:100EC000CF911F910F910C9451068F929F92AF92E8
:100ED000BF92CF92DF92EF92FF926B017C010E9452
:100EE0002C064B015C01C114D104E104F104B9F0FA
:100EF0000E942C06681979098A099B09683E73408B
:100F00008105910580F321E0C21AD108E108F108BA
:100F100088EE880E83E0981EA11CB11CE4CFFF90E0
:100F2000EF90DF90CF90BF90AF909F908F900895FB
:100F30002FB7F8946091F6027091F7028091F80251
:100F40009091F9022FBF0895CF92DF92EF92FF9216
:100F5000CF93DF93D091B803D81701F1C82F81E068
:100F60000E946E04837E682F6C2B81E00E947604C1
:100F70000E9498076B017C01D11117C087E20E9483
:100F80006E0487FD12C00E9498076C197D098E09B6
:100F90009F09643671058105910580F3DF91CF913A
:100FA000FF90EF90DF90CF900895C093B803F6CFF5
:100FB0000F931F93CF93DF93EC0184E00E94A4076B
:100FC0002097F9F088818823E1F02A988EEB0E941F
:100FD00068048E01005F1F4F89910E946804C0174A
:100FE000D107D1F72A9AC1E08DE30E946E048E7F6B
:100FF000682F6C2B8DE3DF91CF911F910F910C9493
:101000007604C0E0F1CF0895AF92BF92CF92DF9205
:10101000EF92FF920F931F93CF93DF936C017B01AD
:101020008B01040F151FEB015E01AE18BF08C0173E
:10103000D10759F06991D601ED91FC910190F081B1
:10104000E02DC6010995892B79F7C501DF91CF9174
:101050001F910F91FF90EF90DF90CF90BF90AF90D6
:101060000895FC01538D448D252F30E0842F90E0AE
:10107000821B930B541710F0CF9608950197089593
:10108000FC01918D828D981761F0A28DAE0FBF2F5C
:10109000B11D5D968C91928D9F5F9F73928F90E0B2
:1010A00008958FEF9FEF08958F929F92AF92BF9216
:1010B000EF92FF920F931F93CF93DF937B018C01ED
:1010C000D0E0C0E00E9498076093CD037093CE03F8
:1010D0008093CF039093D00385EC93E00E94400867
:1010E00097FF27C00E9498078090CD039090CE0371
:1010F000A090CF03B090D003681979098A099B09A1
:101100008090C9039090CA03A090CB03B090CC0309
:10111000681579058A059B05F8F2CE01DF91CF911C
:101120001F910F91FF90EF90BF90AF909F908F9085
:101130000895F80181938F012196EC16FD0611F6B2
:10114000ECCFFC01918D828D981731F0828DE80FE4
:10115000F11D858D90E008958FEF9FEF08950F9317
:101160001F930E9498076093CD037093CE038093E2
:10117000CF039093D00385EC93E00E94A10897FFE2
:101180001DC00E9498070091CD031091CE032091BD
:10119000CF033091D003601B710B820B930B009136
:1011A000C9031091CA032091CB033091CC0360177F
:1011B000710782079307F8F28FEF9FEF1F910F914E
:1011C0000895CF92DF92EF92FF92CF930E94AF08E3
:1011D000FC0197FD4EC08D32910521F0C0970A9712
:1011E00008F040C0C12CD12C7601C0E0E130F105FF
:1011F000D1F0ED32F105D9F1CF01C0970A9798F4FB
:10120000AAE0B0E0A70196010E94A4226F01FF0F9F
:10121000EE08FF08C60ED71EE81EF91E80E3C81AA6
:10122000D108E108F10885EC93E00E9440080E9493
:10123000AF08FC01C0970A97C8F2E130F105B1F29E
:10124000CC2341F0F094E094D094C094C11CD11C04
:10125000E11CF11CC701B601CF91FF90EF90DF9028
:10126000CF90089585EC93E00E944008AFCFC1E095
:10127000DACFC12CD12C7601EDCFFC01918D228DDE
:10128000892F90E0805C9F4F821B91098F73992773
:10129000089585EC93E00E943D0921E0892B09F433
:1012A00020E0822F089580E090E0892B29F00E94B1
:1012B000490981110C9400000895FC01A48DA80F28
:1012C000B92FB11DA35ABF4F2C91848D90E0019688
:1012D0008F739927848FA689B7892C93A089B189A8
:1012E0008C91837080648C93938D848D981306C049
:1012F0000288F389E02D80818F7D80830895EF92AD
:10130000FF920F931F93CF93DF93EC0181E0888FBF
:101310009B8D8C8D98131AC0E889F989808185FF8F
:1013200015C09FB7F894EE89FF896083E889F98931
:1013300080818370806480839FBF81E090E0DF9133
:10134000CF911F910F91FF90EF900895F62E0B8D86
:1013500010E00F5F1F4F0F731127E02E8C8D8E1141
:101360000CC00FB607FCFACFE889F989808185FFA8
:10137000F5CFCE010E945D09F1CFEB8DEC0FFD2F73
:10138000F11DE35AFF4FF0829FB7F8940B8FEA8963
:10139000FB8980818062CFCF0F931F93CF93DF9320
:1013A0008C01D0E0C0E0F801EC0FFD1F64916623D2
:1013B00041F085EC93E00E947F09892B11F0219682
:1013C000F2CFCE01DF91CF911F910F910895682F39
:1013D00085EC93E00C947F091F93CF93DF93CAEEC3
:1013E000D2E0FE011491112351F01A3019F48DE06E
:1013F0000E94E709812F0E94E7092196F2CFDF9131
:10140000CF911F910895CF93DF93EC01888D8823AE
:10141000B9F0AA89BB89E889F9898C9185FD03C057
:10142000808186FD0DC00FB607FCF7CF8C9185FF3C
:10143000F2CF808185FFEDCFCE010E945D09E9CF1B
:10144000DF91CF910895DC0180E0615090F09D9193
:101450009827E92FEF70F0E0EB53FF4F2491E92F2D
:10146000E295EF70F0E0EB52FF4FE491822F8E2770
:10147000ECCF0895DC012C911196ED91FC91F8943C
:101480008181822B81839281322F309593239283A5
:1014900087E090E00197F1F781818323818383E2E4
:1014A00090E00197F1F790817894EFECF0E03197BC
:1014B000F1F7922381E009F480E00895FC01908126
:1014C0000180F281E02D292F209560FF14C0F8944F
:1014D0008281822382838181892B8183A3E2B0E090
:1014E0001197F1F78281982B9283789487ED90E0A1
:1014F0000197F1F70895F894828182238283818194
:10150000892B8183AFEFB0E01197F1F78281982B9F
:10151000928378948FE090E0EBCFDF92EF92FF928E
:101520000F931F93CF93DF93EC01D62EE42E08E0A8
:1015300010E0FF24F39461E08D2D8F2109F460E029
:10154000CE010E945E0AFF0C01501109A1F7E110C3
:1015500010C0F894E981FA8191818881809589236E
:101560008183E981FA8192818881809589238283B0
:101570007894DF91CF911F910F91FF90EF90DF90C2
:101580000895EF92FF920F931F93CF93DF938C01F7
:101590007B0140E065E50E948D0AE70188E0E80EE6
:1015A000F11C699140E0C8010E948D0ACE15DF054B
:1015B000C1F7DF91CF911F910F91FF90EF900895A8
:1015C000FC0190810180F281E02DF8948181292F26
:1015D00020958223818378943DE743E050E03150A9
:1015E00029F1DA011197F1F780818923C1F3F89489
:1015F0008281822382838181892B81837894ABE7E6
:10160000B7E01197F1F7F894818182238183A3E1F8
:10161000B1E01197F1F78081982381E009F080E033
:101620007894E3E6F6E03197F1F7089580E00895C5
:101630006F927F928F929F92AF92BF92CF92DF92E2
:10164000EF92FF920F931F93CF93DF938C01EB01E7
:1016500080917704909178040E94E00A882309F42D
:101660003FC0B80180917704909178040E94C10A2C
:1016700040E06EEB80917704909178040E948D0A8F
:101680007E016E0189E0C80ED11C8E01A090770406
:10169000B090780488E0882E912C712C6624639495
:1016A000C5010E943A0A81117628660CE1E08E1A83
:1016B0009108B1F7F80171928F01CE16DF0631F76C
:1016C00080917704909178040E94E00A813041F47F
:1016D000F70181917F01811105C0E017F107C1F782
:1016E00090E008C068E0CE010E94230A91E02885BE
:1016F0002813F6CF892FDF91CF911F910F91FF9083
:10170000EF90DF90CF90BF90AF909F908F907F90A1
:101710006F9008958F929F92AF92BF92CF92DF9277
:10172000EF92FF920F931F93CF93DF93CDB7DEB766
:1017300029970FB6F894DEBF0FBECDBFBE016F5F15
:101740007F4F84EA94E00E94180B811105C060E08D
:1017500070E08EEF92EC4AC02A8160E070E0CB012D
:1017600027FF04C060E070E088EF9FEF4091A40481
:10177000C9804B3309F04DC03D8137FF4AC0C0FCE2
:10178000E6CFD12CF12CE12CE3E0CC0CDD1CEE1CDF
:10179000FF1CEA95D1F74601570130EE832237E06E
:1017A0009322AA24BB24C22ED12CF12CE12CFBE0E5
:1017B000CC0CDD1CEE1CFF1CFA95D1F7C828D928EB
:1017C000EA28FB286C297D298E299F29613854EE4F
:1017D00075075FEF850795070CF4B9CF0E9471215B
:1017E00020E030E040E05CE30E94D02129960FB673
:1017F000F894DEBF0FBECDBFDF91CF911F910F9147
:10180000FF90EF90DF90CF90BF90AF909F908F9020
:101810000895022F10E0102F0027110F110F110F44
:1018200058E0C59E600111240C291D29012E000CD1
:10183000220B330B602B712B822B932B403131F613
:101840004885442319F28B019C0183E0000F111F8E
:10185000221F331F8A95D1F7007827703327005253
:10186000110921093109642F70E08F81AB01481BF8
:101870005109CA019695982F8827979587950E94B8
:10188000BE22072E000C880B990B600F711F821F60
:10189000931F9CCF0F931F93CF93DF93CDB7DEB7EA
:1018A00029970FB6F894DEBF0FBECDBFFC01208193
:1018B000203139F18C01BE016F5F7F4F0E94180B00
:1018C000882371F09D81F80180818B3311F497FD9D
:1018D00018C08AE09F3329F078F489E09F3109F03D
:1018E00080E029960FB6F894DEBF0FBECDBFDF9122
:1018F000CF911F910F9108958BE09F3591F39F3702
:1019000079F78CE0EECF8F929F92AF92BF92CF92F9
:10191000DF92EF92FF92CF93DF9300D000D01F921F
:10192000CDB7DEB780917704909178040E94E00AE9
:1019300040E06CEC80917704909178040E948D0ACD
:1019400040916E0464E480917704909178040E9441
:101950008D0A0E9498076B017C01809172048111AD
:101960001EC081E08983CA82DB82EC82FD822981EC
:101970003A814B815C816D8170E080E090E00F9056
:101980000F900F900F900F90DF91CF91FF90EF90FD
:10199000DF90CF90BF90AF909F908F9008958091EF
:1019A00073048823C1F080916E04811114C080916A
:1019B0007704909178040E943A0A813091F20E9453
:1019C00098076C197D098E099F096E3E724081054A
:1019D000910568F3C6CFE0917104E9508EEE92E074
:1019E000E33038F4F0E0EE0FFF1FE85FFE4F808138
:1019F00091814C01B12CA12C80916F04882329F096
:101A000060E0809170040E948305C501B4010E94CA
:101A1000650780916F04882309F4A3CF61E080916A
:101A200070040E9483059DCF83FF04C098E289273C
:101A300087FD16C09091600098709064892B9091FA
:101A400060009093D10294B7977F94BFF8949091DF
:101A5000600098619093600080936000789408958E
:101A60008091D102F0CFCF92DF92EF92FF921F933D
:101A7000CF93DF936C01EC0138E0E32EF12CC03101
:101A8000D10508F43FC0CE0110E08032910530F05E
:101A90001F5F193019F096958795F7CF1092D202F3
:101AA000812F0E94140D90917A0080917A008F7797
:101AB00080937A0083B7817F846083BFF89483B773
:101AC000816083BF85B7806685BF85B78F79806465
:101AD00085BF7894889583B78E7F83BF90937A0073
:101AE0008FEF0E94140DC70102C0880F991F1A952D
:101AF000E2F7C81BD90B2091D202222311F1C81B97
:101B0000D90BBDCF81E04091F6025091F702609170
:101B1000F8027091F902CC1ADD0A4C0D5D1D611DB1
:101B2000711D4093F6025093F7026093F802709390
:101B3000F902DF91CF911F91FF90EF90DF90CF904E
:101B4000089580E0E0CF90E080E0089581E0809308
:101B5000F4028091EC029091ED02A091EE02B0911E
:101B6000EF020196A11DB11D8093EC029093ED024E
:101B7000A093EE02B093EF0208951092E802109243
:101B8000E9021092EA021092EB021092EC0210921B
:101B9000ED021092EE021092EF0280ED92E0A0E0D2
:101BA000B0E08093F0029093F102A093F202B09320
:101BB000F3021092F40286EA9DE09093070180936D
:101BC0000601E9E6F0E080818C608083E99A08955F
:101BD000BF92CF92DF92EF92FF920F931F93CF931A
:101BE000DF932AE7E22EF12CF701B0800BE710E03B
:101BF000F801C080CCE7D0E0D8800E94330DF70117
:101C0000B082F801C082D882DF91CF911F910F91ED
:101C1000FF90EF90DF90CF90BF900895EF92FF92EA
:101C20000F931F93CF93DF937C018C01C3E0D0E02F
:101C3000CE010E948E22F80181938F012196C73038
:101C4000D105B1F7C701DF91CF911F910F91FF909F
:101C5000EF9008950F931F93CF93DF9300D000D0A0
:101C6000CDB7DEB78C0190E080E00E948E228F34E9
:101C7000D1F481E090E00E948E228534A1F482E0CC
:101C800090E00E948E228D3471F481E001151105DF
:101C900059F0CE0101960E940E0E81E02B813C810D
:101CA0002017310709F080E00F900F900F900F90F0
:101CB000DF91CF911F910F910895FC0101900020B9
:101CC000E9F73197AF01481B590BBC0185EC93E054
:101CD0000C94040882E391E00C945D0ECF93DF93A3
:101CE0000E94CC09EC010E946A0E8C0F9D1FDF91AF
:101CF000CF910895CF93DF93D0E0C0E0009719F023
:101D00000E945D0EEC010E946A0E8C0F9D1FDF91F8
:101D1000CF9108958F929F92AF92BF920F931F938E
:101D2000CF93DF93CDB7DEB7A1970FB6F894DEBFA0
:101D30000FBECDBF19A2423008F44AE08E010F5DFC
:101D40001F4F842E912CB12CA12CA50194010E942F
:101D5000D222E62FB901CA01EA30F4F4E05DD801DD
:101D6000EE938D01232B242B252B79F790E080E037
:101D7000109719F0CD010E945D0EA1960FB6F89450
:101D8000DEBF0FBECDBFDF91CF911F910F91BF90EE
:101D9000AF909F908F900895E95CE1CF0C945D0E19
:101DA000CF92DF92EF92FF92CF93DF936C01990F66
:101DB000EE08FF08F7FE17C08DE20E94E709EC016C
:101DC00066277727CB016C197D098E099F094AE0A8
:101DD0000E948A0E8C0F9D1FDF91CF91FF90EF9094
:101DE000DF90CF9008954AE0C701B601DF91CF910F
:101DF000FF90EF90DF90CF900C948A0ECF93DF93FB
:101E00000E94D00EEC010E946A0E8C0F9D1FDF9184
:101E1000CF910895CF92DF92EF92FF920F931F938D
:101E2000CF93DF938C017B01D0E0C0E0CE15DF05BE
:101E30006CF56801CC0EDD1EC6010E948E22803139
:101E400018F480E30E94E7092196C6010E948E22C1
:101E5000682F70E090E080E040E10E948A0E86E109
:101E600092E00E94CE0ECE0187709927892B21F433
:101E700086E192E00E94CE0ECE018F709927892BC9
:101E8000A9F686E498E00E94CC09D0CFDF91CF91EB
:101E90001F910F91FF90EF90DF90CF9008954F9298
:101EA0005F926F927F928F929F92AF92BF92EF92CA
:101EB000FF920F931F93CF93DF937C018B010E94BE
:101EC0002C064B015C0180918E03811165C0C02FEF
:101ED00081E080938E0380938D039FEF90938C031A
:101EE00010928B03900F90938A03809369038091E3
:101EF000690380688093690380916803813009F0E9
:101F000091C0109268030E942C064B015C018091E5
:101F100069038093BB008091900390919103A091FD
:101F20009203B0919303892B8A2B8B2BA1F00E94F3
:101F30002C06409090035090910360909203709013
:101F40009303681979098A099B094616570668069A
:101F5000790608F442C08091BC0083FDD8CF85EC9F
:101F60008093BC000E942C064B015C0180918E0383
:101F7000813009F459C080918B038C1710F4C09103
:101F80008B03AAE6B3E0E8E4F3E080E08C1751F1BC
:101F90009D9191938F5FFACF8091900390919103DF
:101FA000A0919203B0919303892B8A2B8B2B09F478
:101FB0008ACF0E942C06409090035090910360902D
:101FC000920370909303681979098A099B09461650
:101FD00057066806790608F076CF80918F030E9435
:101FE000CF05C0E010924703C0934603E7010E0DF2
:101FF0001F1D89EB93E00E94BB048993C017D10792
:10200000C1F781E090E0DF91CF911F910F91FF9098
:10201000EF90BF90AF909F908F907F906F905F9068
:102020004F90089585EE9CCF8091900390919103FD
:10203000A0919203B0919303892B8A2B8B2B09F4E7
:1020400095CF0E942C064090900350909103609091
:10205000920370909303681979098A099B094616BF
:1020600057066806790608F081CFB7CFFF920F9325
:102070001F93CF93DF93CDB7DEB728970FB6F894B1
:10208000DEBF0FBECDBF85EE888761E070E0CE0178
:1020900008960E94410762E070E0CE0101960E941E
:1020A0004F0F29813A81322723273227A4EDB0E34D
:1020B0000E94AF228C010855124080EE8F8361E0B0
:1020C00070E0CE0107960E94410762E070E0CE0109
:1020D00001960E944F0F29813A8132272327322708
:1020E000A4EAB4E40E94AF22BC016D547241F62E02
:1020F0007A836983072E000C880B990B0E9471214B
:1021000026E636E646EE5FE30E94D02120E030E08E
:1021100048E455E40E940F230E94ED237C836B83E7
:102120001E830D832F2D3A81462F5C81602F7E8187
:1021300080E090E028960FB6F894DEBF0FBECDBFCA
:10214000DF91CF911F910F91FF900895BF92CF9291
:10215000DF92EF92FF920F931F93CF93DF93EC01E7
:10216000B62EC72E8D85811105C0CE010E94E00AD2
:1021700081110EC01B861D861C8680E0DF91CF91E9
:102180001F910F91FF90EF90DF90CF90BF90089537
:1021900040E060EFCE010E948D0A01E0E12CD12CDD
:1021A00011E0CE010E943A0AF82ECE010E943A0AAE
:1021B00091E0F91218C0813099F51134D8F2DB861C
:1021C000D11002C081E08D878B81882399F22396FC
:1021D000EB2DFC2DCF01089629912193E817F907E3
:1021E000D9F781E0CBCFEE2DF0E0F8120FC08B8550
:1021F0001817A0F4DE01AE0FBF1F13968C91802339
:1022000079F4F12C193008F41C87D12EEC0FFD1F46
:102210008381902F9095892383830AC08113F1CF06
:10222000FE01EE0DF11D8381802B8383FF24F39447
:102230006F2DCE010E945E0A1F5F000F11F4E39420
:1022400001E087E08E1508F0ACCFB7CFEF92FF9298
:102250000F931F93CF93DF93CDB7DEB729970FB6B8
:10226000F894DEBF0FBECDBF8C01FC018081FF243E
:10227000F394803109F475C0BE016F5F7F4FC801D0
:102280000E94180BF82E882309F46BC08D81F80189
:1022900090819B3311F487FD64C08F3509F461C0D0
:1022A0008FE58D8380917704909178040E94E00AF5
:1022B000B80180917704909178040E94C10A40E0AF
:1022C0006EE480917704909178040E948D0A40E03A
:1022D0006B8180917704909178040E948D0A40E090
:1022E0006C8180917704909178040E948D0AF801A6
:1022F0008081803141F040E06D8180917704909140
:1023000078040E948D0AE090740480917704909183
:102310007804EE2009F47FC00E94E00A882309F1C6
:10232000B80180917704909178040E94C10A40918D
:102330006E0468E480917704909178040E948D0A7D
:1023400080916E0481114DC064E170E080E090E006
:102350000E94650780917704909178040E94E00ABA
:10236000FE2C8BE08093710480917504823008F418
:1023700055C0E0917704F091780413861586148691
:102380001286118610861782168215821482138295
:1023900010E080917504181708F040C08091710416
:1023A0008C30E1F1BE016F5F7F4F80917704909197
:1023B00078040E94A610882391F067E0CE01019670
:1023C0000E94230A988589130AC0CE0101960E94B3
:1023D0004A0C90917104981710F4809371041F5F58
:1023E000D8CF80916F04882329F060E08091700439
:1023F0000E94830564E170E080E090E00E94650740
:1024000080916F04882309F4A5CF61E08091700466
:102410000E9483059FCF0E94E00AA3CF8F2D2996AB
:102420000FB6F894DEBF0FBECDBFDF91CF911F91E5
:102430000F91FF90EF9008954F925F926F927F926D
:102440008F929F92AF92BF92CF92DF92EF92FF92C4
:102450000F931F93CF936B017C01742EAC019B01F2
:102460000E942824882399F085E391E0CF911F9161
:102470000F91FF90EF90DF90CF90BF90AF909F9023
:102480008F907F906F905F904F900C945D0E4601FF
:102490005701E894B7F82FEF3FEF4FE75FE7C5012B
:1024A000B4010E94282481110DC02FEF3FEF4FE7A8
:1024B0005FE7C501B4010E946A2118161CF489E384
:1024C00091E0D4CF2FEF3FEF4FE75FE4C701B601B4
:1024D0000E94232418161CF48DE391E0C7CF2FEF40
:1024E0003FEF4FE75FECC701B6010E946A2187FD0D
:1024F000F3CF20E030E0A901C701B6010E946A21B4
:1025000010E000E087FF08C08DE20E94E7098C011F
:10251000F7FAF094F7F8F094C0E060E070E080E043
:102520009FE37C1641F020E030E040E251E40E945D
:102530007B23CF5FF6CFA70196010E940F232B01CB
:102540003C010E94F4234B015C014AE00E948A0E88
:102550007C01E00EF11ECC23B1F1C501B4010E9453
:102560006F219B01AC01C301B2010E940E234B01FC
:102570005C018EE20E94E709E80EF91EC15018F1D5
:1025800020E030E040E251E4C501B4010E94D021D6
:102590002B013C010E94F4234B01B12CA12C4AE0F9
:1025A000C501B4010E948A0EE80EF91EC501B401EE
:1025B0000E946F219B01AC01C301B2010E940E2356
:1025C0004B015C01DBCFC701CF911F910F91FF90B1
:1025D000EF90DF90CF90BF90AF909F908F907F90C3
:1025E0006F905F904F90089580919D048F738093BA
:1025F0009A049091DA022091DB02211182C0992382
:1026000009F483C08F5F80939A048EEB90E00E9460
:10261000CC0960919C0470E090E080E04AE00E9468
:102620008A0E86EB90E00E94CC0960919A0470E0DB
:1026300090E080E04AE00E948A0E8EEA90E00E94DC
:10264000CC0980919B048B3209F44CC0863509F487
:102650004CC08B3509F04CC083E993E00E94D00E4A
:1026600089EA90E00E946E0E87E990E00E94CC0912
:102670008091A00490E00E94FE0E87E890E00E9406
:10268000CC098091A1049091A2040E94D00E83E60F
:1026900091E00E947A0E84E790E00E94CC0980913C
:1026A000A30490E00E94FE0E80919E0480FF23C050
:1026B00081E491E00E947A0E80919E0481FF1EC009
:1026C0008EE491E00E947A0E88E690E00E94CC09A8
:1026D00080919F048251990B0E94D00E87E691E071
:1026E0000C947A0E81EB91E0B9CF84E693E0B6CFFB
:1026F00090E080E0B3CF87E491E0DCCF88E591E023
:10270000E1CF911182CF8E5F7ECF8D5F7CCF85ED43
:102710008093BC008091900390919103A0919203CB
:10272000B09193030796A11DB11D23E0B695A7951F
:10273000979587952A95D1F72091BC0024FD03C079
:1027400010928E03089540919003509191036091EF
:10275000920370919303452B462B472B69F3009707
:10276000A105B10541F02AE22A95F1F700C00197D1
:10277000A109B109E1CF80918F030C94CF05FF929D
:102780000F931F93CF93DF93EC01F62E08811981ED
:10279000C8010E948E22F81621F06F2DC8010E94F8
:1027A0009622CE01DF91CF911F910F91FF90089556
:1027B000CF92DF92EF92FF920F931F93CF93DF930D
:1027C00000D0CDB7DEB76C017C0103E010E01A83C6
:1027D0000983F70161917F01CE0101960E94BF1329
:1027E0000F5F1F4F0730110591F7C6010F900F9033
:1027F000DF91CF911F910F91FF90EF90DF90CF90DD
:1028000008951F920F920FB60F9211242F933F93AA
:102810004F935F936F937F938F939F93AF93BF93E8
:10282000EF93FF938091B900887F803609F44AC006
:10283000F0F5883209F4A7C018F5803109F49BC07F
:10284000B8F4882309F4F9C0883009F494C0FF91E2
:10285000EF91BF91AF919F918F917F916F915F9118
:102860004F913F912F910F900FBE0F901F90189591
:10287000883109F488C0803251F780938C0314C0EA
:10288000803409F49DC040F48033B9F38833F9F6FD
:1028900080938C0385ECB0C0803509F485C0883501
:1028A00009F496C0883499F60E948713D0CF8839EE
:1028B00009F48CC038F5883729F050F4883611F0C7
:1028C000803729F683E080938E031092450357C02A
:1028D000883809F47BC0803919F0803809F0B7CF07
:1028E00080914503803208F071C0E091450381E09A
:1028F0008E0F809345038091BB00F0E0EB5DFC4FB1
:1029000080833DC0803B39F0E0F4803A09F479C01F
:10291000883A09F09CCF84E080938E0310922203C2
:1029200010922103E0911F03F091200309958091FB
:10293000210381110FC081E0809321031092FF02D7
:1029400009C0803C09F4A6CF883C09F4A3CF883B9A
:1029500009F07DCFE091220381E08E0F8093220366
:10296000F0E0E150FD4F80818093BB009091220305
:102970008091210329C0809169038093BB0085EC7D
:102980008093BC0064CF90918B0380918A03981749
:1029900058F5E0918B0381E08E0F80938B03F0E07C
:1029A000E659FC4F8081E9CFE0918B0381E08E0FE7
:1029B00080938B038091BB00F0E0E659FC4F80834D
:1029C00090918B0380918A039817C8F285E8D8CF3D
:1029D000E0918B0381E08E0F80938B038091BB008D
:1029E000F0E0E659FC4F808380918D0381115CCF2C
:1029F00081E08093680384EA8093BC0010928E0388
:102A000026CF85EC8093BC0010928E038091450305
:102A1000803230F4E0914503F0E0EB5DFC4F108232
:102A20006091450370E0E0912303F091240385E277
:102A300093E00995109245030ACF10928C0334CF8E
:102A40001F920F920FB60F9211242F933F938F93E3
:102A50009F93AF93BF938091F6029091F702A0915C
:102A6000F802B091F9023091F50223E0230F2D37DF
:102A700058F50196A11DB11D2093F5028093F60231
:102A80009093F702A093F802B093F9028091FA02B2
:102A90009091FB02A091FC02B091FD020196A11D54
:102AA000B11D8093FA029093FB02A093FC02B093B5
:102AB000FD02BF91AF919F918F913F912F910F9008
:102AC0000FBE0F901F90189526E8230F0296A11DA8
:102AD000B11DD2CF1F920F920FB60F9211242F93D8
:102AE0003F934F935F936F937F938F939F93AF9396
:102AF000BF93EF93FF93E0910601F09107010995D1
:102B0000FF91EF91BF91AF919F918F917F916F91C5
:102B10005F914F913F912F910F900FBE0F901F909B
:102B200018951F920F920FB60F9211242F933F9377
:102B30004F935F936F937F938F939F93AF93BF93C5
:102B4000EF93FF93E0910401F09105010995FF9146
:102B5000EF91BF91AF919F918F917F916F915F9115
:102B60004F913F912F910F900FBE0F901F9018958E
:102B70001F920F920FB60F9211242F933F934F93F2
:102B80005F936F937F938F939F93AF93BF93EF93D5
:102B9000FF9385EC93E00E945D09FF91EF91BF9157
:102BA000AF919F918F917F916F915F914F913F91E5
:102BB0002F910F900FBE0F901F9018951F920F929C
:102BC0000FB60F9211242F938F939F93EF93FF9340
:102BD000E091D503F091D6038081E091DB03F09181
:102BE000DC0382FD1BC090818091DE038F5F8F73B9
:102BF0002091DF03821741F0E091DE03F0E0EB5318
:102C0000FC4F958F8093DE03FF91EF919F918F9101
:102C10002F910F900FBE0F901F9018958081F4CFC9
:102C20001F920F920FB60F9211248F938091D202B0
:102C30008F5F8093D2028F910F900FBE0F901F90E5
:102C40001895EF92FF920F931F93CF93DF9300D0CD
:102C5000CDB7DEB71092BC031092BB0388EE93E0B1
:102C6000A0E0B0E08093BD039093BE03A093BF03A8
:102C7000B093C00322E131E03093BA032093B9034B
:102C80001092C8031092C7038093C9039093CA039C
:102C9000A093CB03B093CC0384E291E09093C6035E
:102CA0008093C50385EC90E09093D2038093D10389
:102CB00084EC90E09093D4038093D30380EC90E075
:102CC0009093D6038093D50381EC90E09093D80342
:102CD0008093D70382EC90E09093DA038093D9033A
:102CE00086EC90E09093DC038093DB031092DE038C
:102CF0001092DF031092E0031092E1038EEF90E058
:102D0000909369048093680485E190E09093650452
:102D10008093640484E290E090936304809362045F
:102D20008BE091E090936B0480936A048FEF93E0C3
:102D300090936D0480936C04109267041092660463
:102D40000BE011E0C8010E948E22780195E1E90EA6
:102D5000F11C8F3F69F110936704009366048FEFB5
:102D6000E81683E0F80654F5C7010E948E228F3FD3
:102D7000D9F00BE011E080916C0490916D0408177C
:102D80001907E4F41A8309836FEFCE0101960E94BC
:102D9000BF131092670410926604809164049091AE
:102DA0006504080F191FE7CF95E1E90EF11CD7CF95
:102DB00087018FEFE81683E0F80621F68BE2809317
:102DC0009B0482ED80939C0487E180939D0411E035
:102DD00010939E0499E190939F041092A00422E323
:102DE00030E03093A2042093A1041092A3048093B6
:102DF0009A048AE0809395048BE0809396048CE09B
:102E0000809397048DE0809398041092990460E079
:102E100081E10E94F005E7E7F8E0E491E0938504A2
:102E2000E3E6F8E0E491F0E0EE0FFF1FE85BF74F18
:102E300085919491909387048093860410929004D6
:102E4000109292041092910410928F0410928E04AA
:102E500010928D0410928C0410928B0410928A04AC
:102E600010928904109288041092840410928304B2
:102E700010926F0485E894E090937804809377042F
:102E8000109275041092760410926E0489E080937B
:102E900071041093720410937304109374040F90D0
:102EA0000F90DF91CF911F910F91FF90EF900895B8
:102EB000CF93DF93CDB7DEB7E7970FB6F894DEBFB9
:102EC0000FBECDBF789484B5826084BD84B5816027
:102ED00084BD85B5826085BD85B5816085BD8091E5
:102EE0006E00816080936E0010928100809181005D
:102EF0008260809381008091810081608093810055
:102F0000809180008160809380008091B100846016
:102F10008093B1008091B00081608093B000809177
:102F20007A00846080937A0080917A008260809336
:102F30007A0080917A00816080937A0080917A0093
:102F4000806880937A001092C10061E089E00E945D
:102F5000F00561E089E00E94830562E086E00E945E
:102F6000F00562E080E10E94F00562E08EE00E94E0
:102F7000F00562E084E10E94F00562E085E10E94D4
:102F8000F00562E084E00E94F00562E087E00E94C4
:102F9000F00562E088E00E94F00587E00E945A0593
:102FA00021E0892B09F420E02093DB0288E00E94D5
:102FB0005A0521E0892B09F420E02093DA02E09100
:102FC000D503F091D60382E08083E091D103F091A4
:102FD000D2031082E091D303F091D40380E1808387
:102FE0001092DD03E091D903F091DA0386E080834B
:102FF000E091D703F091D803808180618083E091D4
:10300000D703F091D803808188608083E091D70353
:10301000F091D803808180688083E091D703F0919C
:10302000D80380818F7D80838DE791E00E947A0EA6
:1030300083E991E00E94CE0E80EA91E00E947A0E30
:1030400064E670E080E090E00E94650786E09FEF14
:103050000E942A0E882329F1CE0101960E940E0EAD
:10306000E980FA80F7FC1DC0470123E0820E911C25
:10307000FBE9CF2EF4E0DF2E07E010E0C8010E944C
:103080008E22D6018D936D010F5F1F4F0815190514
:10309000A8F3B4E0EB16F10421F085EE90E00E9475
:1030A0006E0E80919E04882309F404C10E94F412DC
:1030B00086EA91E00E947A0E80EC91E00E947A0EFE
:1030C00000919C0410919B0480919A048093930436
:1030D0001092940461E0809195040E94F00561E0F3
:1030E000809196040E94F00560E0809197040E9410
:1030F000F00561E0809198040E94F0052A9A80E52D
:103100008CBD8DB581608DBD0E9498076B017C01DF
:103110006AEA8FE20E9476048FE20E946E048A3A85
:1031200059F00E9498076C197D098E099F09623336
:1031300071058105910560F30E9498076C197D095E
:103140008E099F09623371058105910508F0AAC0B7
:103150000E9498076B017C0165E58FE20E9476046E
:103160008FE20E946E04853559F00E9498076C1911
:103170007D098E099F09623371058105910560F310
:103180000E9498076C197D098E099F0962337105A9
:103190008105910508F086C0FE0133968BE2DF01C0
:1031A0001D928A95E9F781E0898394E09A8322E071
:1031B0002B8383E08D832E839F8390E4988725E083
:1031C00029878A8786E08B8783E38C8787E08D87D2
:1031D00028E02F8729E0298B29E12B8B22E42C8BF7
:1031E00035E23D8B9E8B96E29F8B888F88E2898F9C
:1031F00090E19A8F89E28B8F8CED8C8F8EE28D8F90
:1032000088E88E8F8FE28F8F8DE288A380E389A379
:1032100037E33BA330E93CA338E33DA32EA32CE3E3
:103220002FA32FE828A72DE329A79AA79FE69BA7FE
:103230008CA789ED163509F08CE68E8780E016356F
:1032400009F080E4888B0AA38E010F5F1F4FF801FD
:103250008081882331F061810E9476040E5F1F4FC8
:10326000F6CF90E080E00E94D80769E981E10E94F2
:10327000760484E00E94A4070E9498076B017C01F9
:1032800087E20E946E0487FD0BC00E9498076C19AC
:103290007D098E099F09623371058105910580F3CF
:1032A0000E9498078CEC91E00E94D8078DED91E088
:1032B0000E947A0E61E085E00E94F00560E081E006
:1032C0000E94F00562E083E00E94F00589EE91E043
:1032D0000E947A0E82E10E945A05019709F041C0CE
:1032E0001092470310924603109295031092B70371
:1032F0000E94B10589EA94E09093200380931F0314
:103300008AEA94E0909324038093230311E01093BE
:10331000940380E48093B60381E00E9451068823E1
:1033200059F162E070E082E091E00E94410768E0BC
:1033300070E0CE0101960E944F0F62E070E080E0E5
:1033400091E00E94410766E070E0CE0101960E9484
:103350004F0F098110E00115110589F41092DD026B
:1033600006C083E10E945A05019709F4B9CF86EFA0
:1033700091E00E947A0E4BC01093D302D2CF81E02D
:103380008093DD020E94361029833A834B835C834D
:103390006D837E8383E092E00E94CE0EC8010E947E
:1033A000FE0E64E670E080E090E00E94650788E130
:1033B00092E00E94CE0E69817A81072E000C880B64
:1033C000990B0E94712120E030E048EC52E40E9409
:1033D0007B2342E00E941C128EE192E00E94CE0EFE
:1033E0006D817E8190E080E00E946F2120E030E0DE
:1033F00048EC52E40E947B2342E00E941C120E948F
:103400006A0E64E670E080E090E00E94650761E08B
:1034100085E00E94830562E370E080E090E00E9416
:103420006507E0917704F091780413861586148679
:1034300012861186108617821682158214821382D4
:10344000109275041092760411E0BE016F5F7F4FF9
:1034500080917704909178040E94A610882309F443
:1034600059C067E0CE0101960E94230A988589130E
:10347000ECCF809175048F5F8093750489818832C9
:1034800031F008F041C0803111F08232F1F68091C4
:1034900076048F5F8093760480916E04811128C03A
:1034A00080917704909178040E94E00ABE016F5FDA
:1034B0007F4F80917704909178040E94C10A40E088
:1034C00064EB80917704909178040E948D0A80913A
:1034D0007704909178040E943A0A082F809177042B
:1034E000909178040E94E00A011102C010936E04CA
:1034F000CE0101960E944A0C90917104981708F031
:10350000A4CF80937104A1CF8B3309F2823409F0E8
:103510009CCFBDCF109272042091A404EBE9F4E09B
:1035200084E090E0211128C08091750490E0909390
:10353000DF028093DE02059734F084E090E0909300
:10354000DF028093DE0210E0612F70E08091DE02E6
:103550009091DF0268177907F4F4E3E0660F771FB4
:10356000EA95E1F76C557B4F85E894E00E94A61040
:10357000882389F01F5FE8CF482F392F0097F1F19A
:1035800051A1019738975832B9F74093DE02309332
:10359000DF022832C1F60091DE021091DF02011530
:1035A000110509F4CEC08091A304882309F453C007
:1035B00061E085E00E94830582E390E00E94E80DCF
:1035C00074EAE72E74E0F72ED12CC12CC016D10678
:1035D000D4F4C7010E9426110E94830C2BAB3CAB94
:1035E0004DAB5EAB6FAB87E791E00E94E80DFFEF5C
:1035F000CF1ADF0A28E0E20EF11CE8CF1092DF02BA
:103600001092DE02C6CF0E948A0B6B017C0120E083
:1036100030E04AEF52E40E946A2187FF18C020E0A0
:1036200030E040E252ECC701B6010E942324181694
:1036300074F420E030E040E251E4C701B6010E949A
:10364000D0210E94ED237093E3026093E20260E0D8
:1036500085E00E9483058DE291E00E94CC09C801BB
:103660000E94D00E80E892E00E94CE0E84E090E0AE
:103670000E94FE0E8091DE029091DF02892B09F4F8
:1036800044C089E191E00E946E0E64EAE62E64E097
:10369000F62ED12CC12C8091DE029091DF02C8164B
:1036A000D9069CF5470188E0880E911C8701D80156
:1036B0008D918D01803120F487E191E00E94CC0949
:1036C000F8013197608170E090E080E040E10E9475
:1036D0008A0E85E191E00E94CC098016910639F7A7
:1036E000F7018681833021F48AEF90E00E94CC09B3
:1036F0000E946A0E65E070E080E090E00E9465073D
:10370000FFEFCF1ADF0A7801C6CF65E070E080E0F6
:1037100090E00E94650789E292E00E94CE0E90E060
:1037200080E00E94D00E8EE792E00E94CE0E809143
:10373000E2029091E3020E94D00E80E392E00E94A8
:103740007A0E88EE93E0A0E0B0E08093C9039093F6
:10375000CA03A093CB03B093CC0380919E0481FF56
:103760005CC08EE491E00E947A0E82E392E00E94B7
:103770007A0E0E9498076093D6027093D7028093C6
:10378000D8029093D90201E00E949807AB01BC01D6
:103790001091D5028091D6029091D702A091D802C3
:1037A000B091D9028854944FAF4FBF4F4817590773
:1037B0006A077B07E8F585EC93E00E943D090597D1
:1037C0001CF31111E1CF65E070E0CE0101960E947B
:1037D0005408059759F589818B3241F58A818B32DE
:1037E00029F58C818D3011F58D818A30F9F48B812A
:1037F0008B32B1F40093D50282E08093D402882307
:1038000019F288EA92E00E946E0E8091D402823012
:1038100009F0BACF0E94EC09B7CF8CE691E0A3CFB4
:10382000833721F40093D50281E0E7CF80E0E5CF34
:103830001111DBC08DE792E00E946E0E62E370E032
:1038400080E090E00E9465070E94BD0D80B780680F
:1038500080BF80919E0481FD05C0809164008260DC
:1038600080936400809164008068809364008091FC
:103870006400846080936400809164008860809319
:1038800064008091DB02811104C060E087E00E9447
:10389000F0058091DA02811104C060E088E00E94A6
:1038A000F0058091DD02882321F060E089E00E942C
:1038B000830501E49CEEC92E92E0D92E20E0E22E91
:1038C00020E0F22E8091F402882341F08091A1043F
:1038D0009091A2040E94330D1092F40280E590E0D2
:1038E0000E94330D813099F48091F0029091F102A1
:1038F000A091F202B091F3020196A11DB11D809337
:10390000F0029093F102A093F202B093F30280913F
:10391000F0029091F102A091F202B091F302823B89
:103920009240A105B10570F48091EC029091ED02F6
:10393000A091EE02B091EF0284369105A105B10588
:1039400008F486C48091A004882331F1F894409152
:10395000EC025091ED026091EE027091EF028091C5
:10396000E8029091E902A091EA02B091EB02840F83
:10397000951FA61FB71F8093E8029093E902A093BA
:10398000EA02B093EB021092EC021092ED02109258
:10399000EE021092EF0278948090DE029090DF02A7
:1039A0008114910409F43BC38091A304882309F492
:1039B00036C361E085E00E94830582E390E00E94C7
:1039C000E80D8BE994E0512C412C3C01F8E06F0E9E
:1039D000711C481459040CF0EFC209960E9426117C
:1039E0002FEF421A520AC301F0CF6090D502662031
:1039F00009F42ACF85EC93E00E943D09892BA9F3B5
:103A000085EC93E00E9440088E36E9F06CF587362D
:103A100009F484C08CF48F3309F4C9C2823609F4E6
:103A200054C085EC93E00E943D09892BF1F285ECAE
:103A300093E00E944008F5CF8C3609F482C00CF068
:103A400083C0893671F70E94E108662309F440C1FA
:103A5000603408F06FE360939D048EE592E00E946D
:103A6000CC0960919D0464C0843709F40FC2CCF482
:103A7000823709F42FC10CF055C1803791F60E94AE
:103A8000E1086F7160939F0484E692E00E94CE0E7D
:103A900080919F048251990B0E94D00E87E691E09D
:103AA00014C1873709F455C2883709F468C28637CC
:103AB00009F0B7CF82E592E00E94CC0980EA91E05C
:103AC0000E945D0E84E391E000C10E94E108643031
:103AD000B1F06830C1F08BE5693091F080919B04C2
:103AE0008B3299F08635A1F08B35A9F483E993E008
:103AF0000E94D00E88E792E00E946E0E92CF8BE279
:103B000080939B04EBCF86E5FBCF81EB91E0F0CF78
:103B100084E693E0EDCF90E080E0EACF0E94E108F8
:103B200060939C0481E792E00E94CC0960919C0420
:103B300070E090E080E04AE00E948A0E0E946A0EE7
:103B400070CF0E94F4126DCF0E94E1088B010E9499
:103B5000AF08FC0197FD87C08D32910559F0C097E1
:103B60000A9740F0EE32F10529F085EC93E00E94CF
:103B70004008EDCF312C712C812C912C50E8A52ED2
:103B80005FE3B52EC12CD12C7601E130F10549F16E
:103B9000ED32F105C9F1EE32F105C1F1CF01C09767
:103BA0000A97F8F4AAE0B0E0A70196010E94A422C7
:103BB0006F01FF0FEE08FF08C60ED71EE81EF91EA4
:103BC00020E3C21AD108E108F108332051F02DECAE
:103BD0003CEC4CEC5DE3C501B4010E94D0214B01EB
:103BE0005C0185EC93E00E9440080E94AF08FC0154
:103BF000C0970A9750F2EE32F10551F4332029F2C2
:103C00007720E1F0372C0AC0762CEBCF362CE9CFA9
:103C1000E130F10509F4B9CF772041F0F094E09458
:103C2000D094C094C11CD11CE11CF11CC701B60189
:103C30000E9471212B013C01332051F0C701B601D4
:103C40000E947121A50194010E94D0212B013C0109
:103C500085EC93E00E943D09892B49F085EC93E0C7
:103C60000E944008F5CF412C512C3201F1CF0115B3
:103C7000110589F001301105C1F088E692E00E943B
:103C8000CC09012B01F142E0C301B2010E941C12D8
:103C900084E692E031CF1092A004E99883E098E0A6
:103CA0009093070180930601E8CF81E08093A00400
:103CB000C301B2010E94ED237093A2046093A1049A
:103CC0000E94BD0DDACF8AE491E00E947A0EA9CE5F
:103CD00061E0C1CE85E691E00E946E0E86E09FEF26
:103CE0000E942A0E882389F0CE0101960E940E0EB2
:103CF00089819A8197FD09C09195819591099A834F
:103D00008983CE0101960E94D8138EE391E00E9430
:103D10006E0E68EC70E080E090E00E9465070C9405
:103D200000007FCE89E692E00E947A0E86E09FEF47
:103D30000E942A0E811128C01A8219826FE4CE01D6
:103D400001960E94BF1381E090E09A83898365E425
:103D5000CE0101960E94BF13A2E0B0E0BA83A9830E
:103D60006DE4CE0101960E94BF1303E010E01A83B8
:103D700009836FEFCE0101960E94BF130F5F1F4FA3
:103D80000115B4E01B0799F7EDE2F0E0FA83E9834F
:103D900086E09FEF9C838B83CE0101960E94D8130F
:103DA0004BE9E42E44E0F42E07E010E0D7016D91DA
:103DB0007D011FA70EA7CE018E960E94BF130F5F35
:103DC0001F4F0033110591F790E080E00E942A0E0A
:103DD00081111AC08AE192E00E94CC094AE060E0B9
:103DE00074E080E090E00E948A0E84EF91E00E94EF
:103DF0006E0E60E074E090E080E00E940A0F82EFB7
:103E000091E00E94CC090CC0CE0101960E940E0EDA
:103E10008B819C81019649F481EA91E00E946E0EAB
:103E20000E946A0E81E292E067CE84E991E00E94EE
:103E3000CC096B817C8190E080E04AE00E948A0E90
:103E400009811A8117FF03C01195019511090450CA
:103E5000110986E891E00E94CC09C8010E94D00EA9
:103E60008FE791E00E94CC0989819A8197FF04C075
:103E700084E791E00E94CC090E946A0EB80187E0B5
:103E800090E00E940A0F82E791E0BBCF0E94E10818
:103E90006B01CB01892B59F40E94E10821E0672BCB
:103EA000682B692B09F420E02093A304BACD653078
:103EB000710508F0B6CD61E070E0CE018E960E94EB
:103EC000540810E000E061E070E0CE018E960E94A0
:103ED0005408892B49F1083038F58EA5803221F03D
:103EE0008D3011F08A3051F4E1E0F0E0EC0FFD1F6D
:103EF000E00FF11D10830F5F10E0E5CF1295107FEA
:103F000090ED980F9A3030F09FEB980F963020F498
:103F100099EC980F190FD7CF9FE9980F963010F4AE
:103F200099EAF7CF90E0F6CFDE01119633E0CC0CA2
:103F3000DD1C3A95E1F781E090E02D91F601E80F64
:103F4000F91FE556FB4F2083019689309105A9F7AB
:103F500068CD0E94E10860939E0481E491E060FDD9
:103F600002C087E491E00E947A0E80919E0481FF56
:103F700003C08EE491E0A9CE88E591E0A6CE84E46A
:103F800092E00E946E0E85EC93E00E943D09892B21
:103F900029F085EC93E00E944008F5CF1092D502FD
:103FA0006AE070E080E090E00E9465073ACD0E94F0
:103FB000EC0982E492E0A0CD0E94830C2EA73FA7DB
:103FC00048AB59AB6AAB87E791E00E94E80D0E94CD
:103FD0008A0B2B013C0120E030E04AEF52E40E94C2
:103FE0006A2187FF18C020E030E040E252ECC301B4
:103FF000B2010E942324181674F420E030E040E25D
:1040000051E4C301B2010E94D0210E94ED237093BC
:10401000E3026093E20260E085E00E948305009382
:104020007C0080917A00806480937A0080917A008D
:1040300086FDFCCF6091780070917900072E000C0E
:10404000880B990B0E94712126E234EE43E05DE378
:104050000E94D0210E94ED237093E7026093E60254
:104060008091DD028823C1F1809164008F77809375
:1040700064000E94361029833A834B835C836D83EE
:104080007E8369817A81072E000C880B990B0E9430
:1040900071212DEC3CEC4CEC5DE30E94D0210E94A0
:1040A000ED237093E1026093E0026D817E8190E0E8
:1040B00080E00E946F212DEC3CEC4CEC5DE30E9413
:1040C000D0210E94ED237093E5026093E402809179
:1040D000640080688093640080919E0480FF3DC0EE
:1040E000809164008B7F809364008EE190E00E9459
:1040F000E80D10919A048091DC02811741F0109331
:104100009304612F89E30E9476041093DC0284E01B
:104110000E94A4070E9498072B013C0187E20E949D
:104120006E0487FDA1C00E9498076419750986096D
:104130009709643671058105910580F384E00E943A
:10414000A40780E00E94A40784E690E00E94E80DA6
:104150008091640084608093640080919E0481FF5C
:104160006DC088E192E00E94CE0E8091E0029091B5
:10417000E1020E94D00E80E392E00E94CE0E809178
:10418000DE029091DF02892BB1F089E292E00E9479
:10419000CE0E90E080E00E94D00E8EE792E00E946A
:1041A000CE0E8091E2029091E3020E94D00E80E355
:1041B00092E00E94CE0E8091DD02882371F08FE1A3
:1041C00092E00E94CE0E8091E4029091E5020E945E
:1041D000D00E80E392E00E94CE0E83E792E00E9430
:1041E000CE0E8091E6029091E7020E94D00E80915F
:1041F000E8029091E902A091EA02B091EB02892BCA
:104200008A2B8B2B99F080E392E00E94CE0E89E7F7
:1042100092E00E94CE0E6091E8027091E9028091D6
:10422000EA029091EB024AE00E948A0E0E946A0E16
:1042300065E070E080E090E00E9465070E949807CA
:104240001092F0021092F1021092F2021092F30218
:10425000E114F10409F436CB0E944909882309F4DA
:1042600031CB0E9400002ECB2A9880E80E9468047F
:104270008FE00E94680485E00E94680480919304A6
:104280000E94680480E00E94680480EE882E82E02C
:10429000982ED4018D914D010E946804C814D90450
:1042A000C1F72A9A8CE00E94A4070E9498072B016C
:1042B0003C0188E20E946E0483FD40CF0E94980773
:1042C0006419750986099709643671058105910598
:1042D00080F334CF0E94AC2108F481E00895E89483
:1042E00009C097FB3EF490958095709561957F4F3E
:1042F0008F4F9F4F9923A9F0F92F96E9BB279395EC
:10430000F695879577956795B795F111F8CFFAF4FB
:10431000BB0F11F460FF1BC06F5F7F4F8F4F9F4F2C
:1043200016C0882311F096E911C0772321F09EE88A
:10433000872F762F05C0662371F096E8862F70E0F0
:1043400060E02AF09A95660F771F881FDAF7880FCA
:104350009695879597F90895990F0008550FAA0B20
:10436000E0E8FEEF16161706E807F907C0F0121688
:104370001306E407F50798F0621B730B840B950B8B
:1043800039F40A2661F0232B242B252B21F40895E0
:104390000A2609F4A140A6958FEF811D811D08957D
:1043A0000E94E3210C9454220E94462238F00E947D
:1043B0004D2220F0952311F00C943D220C944322C1
:1043C00011240C9488220E94652270F3959FC1F3FA
:1043D000950F50E0551F629FF001729FBB27F00DB3
:1043E000B11D639FAA27F00DB11DAA1F649F662708
:1043F000B00DA11D661F829F2227B00DA11D621F57
:10440000739FB00DA11D621F839FA00D611D221F10
:10441000749F3327A00D611D231F849F600D211DF4
:10442000822F762F6A2F11249F5750409AF0F1F077
:1044300088234AF0EE0FFF1FBB1F661F771F881FE0
:1044400091505040A9F79E3F510580F00C943D22B9
:104450000C9488225F3FE4F3983ED4F386957795D9
:104460006795B795F795E7959F5FC1F7FE2B880F86
:10447000911D9695879597F9089597F99F6780E81C
:1044800070E060E008959FEF80EC089500240A94A6
:104490001616170618060906089500240A9412161F
:1044A0001306140605060895092E0394000C11F452
:1044B000882352F0BB0F40F4BF2B11F460FF04C0FF
:1044C0006F5F7F4F8F4F9F4F089557FD9058440F58
:1044D000551F59F05F3F71F04795880F97FB991F63
:1044E00061F09F3F79F08795089512161306140620
:1044F000551FF2CF4695F1DF08C0161617061806AD
:10450000991FF1CF86957105610508940895E89487
:10451000BB2766277727CB0197F90895F999FECF36
:1045200092BD81BDF89A992780B50895262FF999F3
:10453000FECF1FBA92BD81BD20BD0FB6F894FA9A86
:10454000F99A0FBE019608950E94AF22A59F900D83
:10455000B49F900DA49F800D911D11240895A29FDA
:10456000B001B39FC001A39F700D811D1124911D47
:10457000B29F700D811D1124911D089597FB072E88
:1045800016F4009407D077FD09D00E94F42207FCAE
:1045900005D03EF4909581959F4F08957095619553
:1045A0007F4F0895A1E21A2EAA1BBB1BFD010DC06F
:1045B000AA1FBB1FEE1FFF1FA217B307E407F507D3
:1045C00020F0A21BB30BE40BF50B661F771F881FAF
:1045D000991F1A9469F760957095809590959B0145
:1045E000AC01BD01CF010895AA1BBB1B51E107C05F
:1045F000AA1FBB1FA617B70710F0A61BB70B881F73
:10460000991F5A95A9F780959095BC01CD01089501
:10461000EE0FFF1F0590F491E02D09945058BB2731
:10462000AA270E9426230C9454220E94462238F086
:104630000E944D2220F039F49F3F19F426F40C9487
:1046400043220EF4E095E7FB0C943D22E92F0E94F3
:10465000652258F3BA17620773078407950720F09D
:1046600079F4A6F50C9487220EF4E0950B2EBA2F60
:10467000A02D0B01B90190010C01CA01A001112468
:10468000FF27591B99F0593F50F4503E68F11A1614
:10469000F040A22F232F342F4427585FF3CF4695A5
:1046A00037952795A795F0405395C9F77EF41F16C7
:1046B000BA0B620B730B840BBAF09150A1F0FF0F91
:1046C000BB1F661F771F881FC2F70EC0BA0F621F7D
:1046D000731F841F48F4879577956795B795F7956D
:1046E0009E3F08F0B0CF9395880F08F09927EE0F02
:1046F0009795879508950E948F230C9454220E94C9
:104700004D2258F00E94462240F029F45F3F29F0E4
:104710000C943D2251110C9488220C9443220E9447
:10472000652268F39923B1F3552391F3951B550B3B
:10473000BB27AA2762177307840738F09F5F5F4F74
:10474000220F331F441FAA1FA9F335D00E2E3AF0B3
:10475000E0E832D091505040E695001CCAF72BD0CB
:10476000FE2F29D0660F771F881FBB1F261737071C
:104770004807AB07B0E809F0BB0B802DBF01FF274E
:1047800093585F4F3AF09E3F510578F00C943D22CC
:104790000C9488225F3FE4F3983ED4F38695779596
:1047A0006795B795F7959F5FC9F7880F911D969507
:1047B000879597F90895E1E0660F771F881FBB1F63
:1047C000621773078407BA0720F0621B730B840B10
:1047D000BA0BEE1F88F7E09508950E94F4236894C1
:1047E000B1110C94882208950E946D2288F09F5781
:1047F00098F0B92F9927B751B0F0E1F0660F771F05
:10480000881F991F1AF0BA95C9F714C0B13091F0FA
:104810000E948722B1E008950C948722672F782F99
:104820008827B85F39F0B93FCCF3869577956795BF
:10483000B395D9F73EF490958095709561957F4F2B
:104840008F4F9F4F08950E94AC2108F48FEF089579
:0E4850000E94AC21880B990B0895F894FFCFBD
:10485E00FCC9FA0F030803085E00BC0077010000D4
:10486E0000000205D504A30DAB04CE04BB04AC04BA
:10487E00000000007F0904083108030A3D094008C2
:10488E00A1080D0A006E616E00696E66006F766695
:10489E00005246206F6E005246206F6666005365CA
:1048AE007269616C206F6E0053657269616C206F66
:1048BE00666600206D73002064426D005365726958
:1048CE00616C207072696E74206F6666004F706541
:1048DE006E456E657267794D6F6E69746F722E6F6D
:1048EE00726700656D6F6E54482046573A20560029
:1048FE00342E312E3800526164696F466F726D61CD
:10490E00743A204C6F77506F7765724C616273000A
:10491E00496E69742052464D2E2E2E003839747809
:10492E00626534703861696B356B74330052464D75
:10493E00205374617274656400496E742053493754
:10494E003032312E2E0053493730323120457272BB
:10495E006F7200534937303231205374617274656F
:10496E00642C2049443A200074656D703A002C681E
:10497E00756D69646974793A0074656D7065780057
:10498E002C00272B2B2B27207468656E205B456E21
:10499E007465725D20666F7220636F6E6669672044
:1049AE006D6F64652C2077616974696E672033734F
:1049BE002E2E2E0070203D2000536176696E672EDC
:1049CE002E2E00626174743A0070756C73653A0035
:0649DE00206F66200000BE
:00000001FF
